:020000040000FA
:0400000006EF00F017
:1000080089ED01F013EE9BF0D0EF09F0F29EFE0EA1
:10001800E3CFD9FFFF0EE3CFDAFFDE06000EDD5A8D
:10002800FE0EE3CFD9FFFF0EE3CFDAFF010EDBBEF2
:1000380022EF00F020EF00F085EF01F023EE97F0BB
:10004800FE0EE3CF4DF0FF0EE3CF4EF00E0E4D2423
:10005800E96E000E4E20EA6EEECF4DF0EDCF4EF079
:10006800D8904D344B6E4E344C6EFE0EE3504B26FA
:10007800FF0EE3504C22020E4B24E96E000E4C207A
:10008800EA6EDECFEEFFDDCFEDFF050EE66E000E69
:10009800E66EFC0EE3CF4DF0FD0EE3CF4EF00E0EF4
:1000A8004D24D96E000E4E20DA6EDECF4DF0DDCF36
:1000B8004EF0010E4D26000E4E224DC0E6FF4EC0FA
:1000C800E6FFD4EC07F0FE0EE3CF4DF0FF0EE3CFD2
:1000D8004EF00E0E4D24D96E000E4E20DA6E43C03F
:1000E800DEFF44C0DDFFFE0EE3CF4DF0FF0EE3CF91
:1000F8004EF00C0E4D24D96E000E4E20DA6EDE2A1C
:10010800000EDD22F29E23EE97F0DECF4DF0DDCF1C
:100118004EF0710E4D02F3CF4BF0F4CF4CF04E027F
:10012800F3504C265C0E4B24D96E010E4C20DA6E2F
:10013800DE50DE10D8B4A3EF00F0A5EF00F06BEFAF
:1001480001F0276A286A23EE97F0DECF4DF0DDCF65
:100158004EF0710E4D02F3CF4BF0F4CF4CF04E023F
:10016800F3504C26F50E4B24D96E000E4C20DA6E57
:10017800030EDF6E4D6E4E6A23EE97F0DECF4BF026
:10018800DDCF4CF0710E4B02F3CF49F0F4CF4AF0BB
:100198004C02F3504A26F80E4924D96E000E4A2024
:1001A800DA6E4DC0DEFF4EC0DDFFE0504D6E4E6A88
:1001B80023EE97F0DECF4BF0DDCF4CF0710E4B0203
:1001C800F3CF49F0F4CF4AF04C02F3504A26FA0E26
:1001D8004924D96E000E4A20DA6E4DC0DEFF4EC0AB
:1001E800DDFFD8504D6E4E6A23EE97F0DECF4BF010
:1001F800DDCF4CF0710E4B02F3CF49F0F4CF4AF04B
:100208004C02F3504A26F60E4924D96E000E4A20B5
:10021800DA6E4DC0DEFF4EC0DDFF23EE97F0DECF75
:100228004DF0DDCF4EF0710E4D02F3CF4BF0F4CF11
:100238004CF04E02F3504C265C0E4B24D96E010E46
:100248004C20DA6E000EDE6E000EDD6E27C04DF01B
:1002580028C04EF0030E4D02F3CF4BF0F4CF4CF014
:100268004E02F3504C2623EE97F0DECF4DF0DDCF53
:100278004EF0710E4D02F3CF49F0F4CF4AF04E0222
:10028800F3504A26F10E4D6E000E4E6E0B0E4D26A3
:10029800000E4E2249504D264A504E224B504D24B6
:1002A800D96E4C504E20DA6EFDCFDEFFFECFDEFF5A
:1002B800FFCFDEFF274A282A0600FC50D8A467EFA4
:1002C80001F069EF01F02AEF01F082EF01F023EE6F
:1002D80097F0DECF4DF0DDCF4EF0710E4D02F3CF2B
:1002E8004BF0F4CF4CF04E02F3504C26F50E4B2455
:1002F800D96E000E4C20DA6E030EDF6EF28EE0EC43
:1003080002F0F28EE552E55212000600E1CF0DF040
:10031800E2CF0EF0D9CF0FF0DACF10F0F3CF11F013
:10032800F4CF12F043C013F044C014F049C015F0E4
:100338004AC016F04BC017F04CC018F04DC019F069
:100348004EC01AF014EE68F0000ED66EF2946306F2
:10035800D8A064065BEC07F063506410D8A4B7EF2C
:1003680001F0B9EF01F0C3EF02F0000E646E080E61
:10037800636EF29E710EE66E000EE66E23EE97F047
:10038800DECF09F0DDCF0AF009C0E6FF0AC0E6FFBC
:1003980048EC08F05C0E4324D96E010E4420DA6E56
:1003A800DE50DE10D8B4DBEF01F0DDEF01F0A8EF8E
:1003B80002F0000E286E000E276E710EE66E000E1B
:1003C800E66E23EE97F0DECF09F0DDCF0AF009C024
:1003D800E6FF0AC0E6FF48EC08F0F50E4324D96EA4
:1003E800000E4420DA6E000EDF6E096E0A6A710E86
:1003F800E66E000EE66E23EE97F0DECF0BF0DDCF53
:100408000CF00BC0E6FF0CC0E6FF48EC08F0F80E55
:100418004324D96E000E4420DA6E09C0DEFF0AC0FC
:10042800DDFFE050096E0A6A710EE66E000EE66E98
:1004380023EE97F0DECF0BF0DDCF0CF00BC0E6FF1C
:100448000CC0E6FF48EC08F0FA0E4324D96E000E03
:100458004420DA6E09C0DEFF0AC0DDFFD850096EFD
:100468000A6A710EE66E000EE66E23EE97F0DECF96
:100478000BF0DDCF0CF00BC0E6FF0CC0E6FF48EC3C
:1004880008F0F60E4324D96E000E4420DA6E09C037
:10049800DEFF0AC0DDFF710EE66E000EE66E23EE8B
:1004A80097F0DECF09F0DDCF0AF009C0E6FF0AC0F9
:1004B800E6FF48EC08F05C0E4324D96E010E442098
:1004C800DA6E000EDE6E000EDD6E710EE66E000E48
:1004D800E66E23EE97F0DECF09F0DDCF0AF009C013
:1004E800E6FF0AC0E6FF48EC08F0F10E0B6E000EBE
:1004F8000C6E0B0E0B26000E0C2243500B2644509C
:100508000C22030EE66E000EE66E27C0E6FF28C03A
:10051800E6FF48EC08F043500B24D96E44500C20F9
:10052800DA6EFDCFDEFFFECFDEFFFFCFDEFF274A0C
:10053800282A0600FC50D8A4A4EF02F0A6EF02F087
:1005480069EF02F0C0EF02F0710EE66E000EE66E83
:1005580023EE97F0DECF09F0DDCF0AF009C0E6FF01
:100568000AC0E6FF48EC08F0F50E4324D96E000EE9
:100578004420DA6E000EDF6EF28EE0EC02F01AC054
:100588004EF019C04DF018C04CF017C04BF016C013
:100598004AF015C049F014C044F013C043F012C02B
:1005A800F4FF11C0F3FF10C0DAFF0FC0D9FF0EC06F
:1005B800E2FF0DC0E1FF1100E652E652E652E652B4
:1005C800F29E7FEC0AF043C097F344C098F3FE0E06
:1005D80097C3E3FFFF0E98C3E3FFFE0EE3CF4DF092
:1005E800FF0EE3CF4EF0710E4D02F3CF4BF0F4CF78
:1005F8004CF04E02F3504C26F50E4B24D96E000EEB
:100608004C20DA6E010EDF6EFC6AFE0EE3CF4DF071
:10061800FF0EE3CF4EF0710E4D02F3CF4BF0F4CF47
:100628004CF04E02F3504C265C0E4B24D96E010E52
:100638004C20DA6EDE50DE10D8B425EF03F027EF39
:1006480003F0E4EF03F0FE0EE3CF4DF0FF0EE3CF2F
:100658004EF0710E4D02F3CF4BF0F4CF4CF04E023A
:10066800F3504C26FA0E4B24D96E000E4C20DA6E4D
:10067800DF50E06EFE0EE3CF4DF0FF0EE3CF4EF0FD
:10068800710E4D02F3CF4BF0F4CF4CF04E02F35005
:100698004C26F60E4B24D96E000E4C20DA6EDF5035
:1006A800D86EFE0EE3CF4DF0FF0EE3CF4EF0710E85
:1006B8004D02F3CF4BF0F4CF4CF04E02F3504C26E2
:1006C800F80E4B24D96E000E4C20DA6EDF504E6EB9
:1006D8004E50FE0EE3CF4DF0FF0EE3CF4EF0710EFD
:1006E8004D02F3CF4BF0F4CF4CF04E02F3504C26B2
:1006F8005C0E4B24D96E010E4C20DA6EDECF4DF025
:10070800DDCF4EF0FC0E4DC0E3FFFD0E4EC0E3FF03
:10071800D5EF03F00500FC0EE3CF4DF0FD0EE3CF5F
:100728004EF0030E4D02F3CF4BF0F4CF4CF04E02D7
:10073800F3504C26FE0EE3CF4DF0FF0EE3CF4EF004
:10074800710E4D02F3CF49F0F4CF4AF04E02F35048
:100758004A26F10E4D6E000E4E6E080E4D26000E06
:100768004E2249504D264A504E224B504D24D96EA8
:100778004C504E20DA6EDECFFDFFDECFFEFFDDCF20
:10078800FFFFFC0EE3CF43F0010E435EFC0E43C0B7
:10079800E3FFFD0EE3CF43F0000E435AFD0E43C0C6
:1007A800E3FFFC0EE3CF43F0FD0EE3504310D8A463
:1007B800E0EF03F0E2EF03F08EEF03F003EF04F055
:1007C8000500FE0EE3CF4DF0FF0EE3CF4EF0710EA5
:1007D8004D02F3CF4BF0F4CF4CF04E02F3504C26C1
:1007E8005E0E4B24D96E010E4C20DA6EDECF4DF032
:1007F800DDCF4EF04DC0FDFF4EC0FEFFFF6AF28E0A
:10080800E552E552E552E5521200E652E652E6524A
:10081800E652FE0EE36AF90EE3BE17EF04F015EF99
:1008280004F020EF04F0F80EE36CF90EE31ED8B0E4
:10083800E32AFE0EE36AE32AFB0EE3BE28EF04F088
:1008480026EF04F030EF04F0FA0EE36CFB0EE31E23
:10085800D8B0E32AFE0EE370FC0EE36AFD0EE36AED
:10086800F80EE3CF43F0F90EE3504310D8B43FEF4E
:1008780004F041EF04F0ADEF04F0FF0EE36AE32A61
:1008880057EF04F0F80EE350D890E834436EF80EB2
:1008980043C0E3FFF90EE350E834436EF90E43C05A
:1008A800E3FFFF0EE32AF90EE3AE5DEF04F05FEF1E
:1008B80004F046EF04F0FC0EE350D890E834436EA1
:1008C800FC0E43C0E3FFFD0EE350E834436EFD0E1B
:1008D80043C0E3FFF80EE3CF4DF0F90EE3CF4EF03F
:1008E800FA0EE3CF4BF0FB0EE3CF4CF04D504B5CD0
:1008F8004E504C58D8A083EF04F085EF04F099EFE0
:1009080004F0FA0EE350436EF80EE350435EFA0E1D
:1009180043C0E3FFFB0EE350436EF90EE350435A26
:10092800FB0E43C0E3FFFC0EE380D890F90EE332E0
:10093800F80EE332FF0EE350436E010E435EFF0EE6
:1009480043C0E3FFD8A4ABEF04F0ADEF04F05FEFD2
:1009580004F0FE0EE350D8B4B4EF04F0B6EF04F0A0
:10096800BCEF04F0FC0EE36CFD0EE31ED8B0E32AE6
:10097800FC0EE3CF43F0FD0EE3CF44F0F80EE12682
:10098800FF0EE2221200E652F29EFF0EE36AFD0E0F
:10099800E3CF4DF0FE0EE3CF4EF0020E4D24D96E9C
:1009A800000E4E20DA6EDE50DE10D8A4DEEF04F022
:1009B800E0EF04F05AEF05F0E150FB0FD96EE2507A
:1009C800DA6EFF0EDA22FD0EE3CF4DF0FE0EE3CF16
:1009D8004EF0060E4D24E96E000E4E20EA6EEECF64
:1009E8004DF0EDCF4EF0D8904D344B6E4E344C6EEA
:1009F800FD0EE3CF4DF0FE0EE3CF4EF04B504D24ED
:100A0800E96E4C504E20EA6EDECFEEFFDDCFEDFFF3
:100A1800FD0EE3CF4DF0FE0EE3CF4EF0060E4D2453
:100A2800D96E000E4E20DA6E000EDE6E000EDD6E00
:100A3800FD0EE3CF4DF0FE0EE3CF4EF0020E4D2437
:100A4800D96E000E4E20DA6EDE2A000EDD22FF0E71
:100A5800E36AE32AFD0EE3CF4DF0FE0EE3CF4EF03E
:100A6800080E4D24D96E000E4E20DA6E120EDECF1F
:100A7800E6FFE82C3BEF05F068EC0AF044BE49EFCE
:100A880005F047EF05F06AEF05F0FD0EE350080F9B
:100A98004D6EFE0EE3CF4EF0000E4E224DC0E6FF27
:100AA8004EC0E6FFC5EC06F06AEF05F0F28EFD0ECB
:100AB800E350080F4D6EFE0EE3CF4EF0000E4E22AF
:100AC8004DC0E6FF4EC0E6FF0AEC00F0FF0EE35013
:100AD800D8B471EF05F073EF05F0CBEF04F0F28EA8
:100AE800FB0EE126FF0EE2221200E652F29EFF0EF6
:100AF800E36AFD0EE3CF4DF0FE0EE3CF4EF0020E9B
:100B08004D24D96E000E4E20DA6EDE50DE10D8B4B9
:100B180090EF05F092EF05F00BEF06F0FD0EE3CF36
:100B28004DF0FE0EE3CF4EF0040E4D24D96E000EAC
:100B38004E20DA6EDECF4DF0DDCF4EF0D8904D343A
:100B48004B6E4E344C6EFD0EE3CF4DF0FE0EE3CFF0
:100B58004EF04B504D24D96E4C504E20DA6EFB0EA1
:100B6800E3CFE9FFFC0EE3CFEAFFDECFEEFFDDCFF8
:100B7800EDFFFD0EE3CF4DF0FE0EE3CF4EF0040E79
:100B88004D24D96E000E4E20DA6E000EDE6E000E79
:100B9800DD6EFD0EE3CF4DF0FE0EE3CF4EF0020EFC
:100BA8004D24D96E000E4E20DA6EDE06000EDD5A98
:100BB800FF0EE36AE32AFD0EE3CF4DF0FE0EE3CF0E
:100BC8004EF0080E4D24D96E000E4E20DA6E120E2D
:100BD800DECFE6FFE82CECEF05F068EC0AF044BE47
:100BE800FAEF05F0F8EF05F01BEF06F0FD0EE35005
:100BF800080F4D6EFE0EE3CF4EF0000E4E224DC094
:100C0800E6FF4EC0E6FFC5EC06F01BEF06F0F28EDD
:100C1800FD0EE350080F4D6EFE0EE3CF4EF0000EB2
:100C28004E224DC0E6FF4EC0E6FF0AEC00F0FF0E74
:100C3800E350D8B422EF06F024EF06F07DEF05F07C
:100C4800F28EFB0EE126FF0EE2221200E652E65279
:100C5800E652E652FC0E97C3E3FFFD0E98C3E3FF8E
:100C6800FE0EE36AFF0EE36A23EE99F0DECF4DF045
:100C7800DDCF4EF04DC0E6FF4EC0E6FFFA0EE35062
:100C8800010F4D6EFB0EE3CF4EF0000E4E224DC00D
:100C9800E6FF4EC0E6FFD4EC07F0FC0E43C0E3FFCE
:100CA800FD0E44C0E3FF23EE99F0FE0EE350DE187C
:100CB80008E1FF0EE350DE18D8A465EF06F067EFF1
:100CC80006F06DEF06F0000E436E000E446EC0EFA6
:100CD80006F0FE0EE350010F436EFE0E43C0E3FF25
:100CE800436AFF0EE3504320436EFF0E43C0E3FF09
:100CF800FC0EE3CF4DF0FD0EE3CF4EF0710E4D022A
:100D0800F3CF4BF0F4CF4CF04E02F3504C26F50ED7
:100D18004B24D96E000E4C20DA6EDF50D8A497EF22
:100D280006F099EF06F038EF06F0FC0EE3CF4DF031
:100D3800FD0EE3CF4EF0710E4D02F3CF4BF0F4CF22
:100D48004CF04E02F3504C265E0E4B24D96E010E29
:100D58004C20DA6E4C0EDE1809E1140EDE18D8B4F9
:100D6800B8EF06F0BAEF06F038EF06F0FC0EE3CF66
:100D780043F0FD0EE3CF44F0E552E552E552E5526B
:100D88001200F29EFE0EE3CFD9FFFF0EE3CFDAFF8B
:100D9800DE2A000EDD22FE0EE3CFD9FFFF0EE3CFE1
:100DA800DAFF010EDBBEE4EF06F0010EDB5006E1D0
:100DB800DE04D8B0E2EF06F0E4EF06F057EF07F0F4
:100DC800FE0EE3CF4DF0FF0EE3CF4EF0100E4D2494
:100DD800D96E000E4E20DA6EDECF4DF0DDCF4EF02C
:100DE800D8904D344B6E4E344C6EFE0EE3504B266D
:100DF800FF0EE3504C22020E4B24D96E000E4C20FD
:100E0800DA6EDECF4DF0DDCF4EF0710E4D02F3CF2E
:100E18004BF0F4CF4CF04E02F3504C26F50E4B2419
:100E2800D96E000E4C20DA6E000EDF6E050EE66EEF
:100E3800000EE66EFC0EE3CF4DF0FD0EE3CF4EF054
:100E4800100E4D24D96E000E4E20DA6EDECF4DF016
:100E5800DDCF4EF0010E4D26000E4E224DC0E6FFAE
:100E68004EC0E6FFD4EC07F0FE0EE3CF4DF0FF0EC8
:100E7800E3CF4EF0100E4D24D96E000E4E20DA6EE0
:100E880043C0DEFF44C0DDFFFE0EE3CF4DF0FF0E92
:100E9800E3CF4EF00C0E4D24D96E000E4E20DA6EC4
:100EA800DE06000EDD5AF28EE552E5521200000E03
:100EB800066E000E056E000E086E000E076EC2EF7D
:100EC80007F0710EE66E000EE66E07C0E6FF08C07A
:100ED800E6FF48EC08F0F50E4324D96E000E4420D6
:100EE800DA6E020EDE18D8A47CEF07F07EEF07F06A
:100EF800C0EF07F0710EE66E000EE66E07C0E6FF63
:100F080008C0E6FF48EC08F0600E4324D96E010ED5
:100F18004420DA6EDE06000EDD5A710EE66E000E13
:100F2800E66E07C0E6FF08C0E6FF48EC08F0600E72
:100F38004324D96E010E4420DA6EDE50DE10D8A4A8
:100F4800A8EF07F0AAEF07F0C0EF07F0710EE66E02
:100F5800000EE66E07C0E6FF08C0E6FF48EC08F0A2
:100F6800F50E4324D96E000E4420DA6E000EDF6EB3
:100F7800000E066E010E056E074A082A23EE99F048
:100F8800DE50075CDE500858D8A0CDEF07F0CFEF51
:100F980007F065EF07F005C001F006C002F0120087
:100FA800E652FB0EE3CF43F0FC0EE3504310D8B4F7
:100FB800E0EF07F0E2EF07F03DEF08F0FF0EE36A1D
:100FC800E32AF8EF07F0FB0EE350D890E834436EBD
:100FD800FB0E43C0E3FFFC0EE350E834436EFC0E07
:100FE80043C0E3FFFF0EE32AFC0EE3AEFEEF07F07B
:100FF80000EF08F0E7EF07F0FB0EE3CF4DF0FC0E33
:10100800E3CF4EF0FD0EE3CF4BF0FE0EE3CF4CF0F6
:101018004D504B5C4E504C58D8A015EF08F017EFC8
:1010280008F029EF08F0FD0EE350436EFB0EE35085
:10103800435EFD0E43C0E3FFFE0EE350436EFC0E1D
:10104800E350435AFE0E43C0E3FFD890FC0EE33250
:10105800FB0EE332FF0EE350436E010E435EFF0EBC
:1010680043C0E3FFD8A43BEF08F03DEF08F000EFE2
:1010780008F0FD0EE3CF43F0FE0EE3CF44F0FB0E85
:10108800E126FF0EE2221200E652E652FA0EE3CF04
:101098004EF0FC0EE3504E02FE0EF3CFE3FFFF0EC0
:1010A800F4CFE3FFFB0EE124D96EFF0EE220DA6EE7
:1010B800DF504E6EFC0EE3504E02F3CFF4FFF36A9E
:1010C800E150FE0FD96EE250DA6EFF0EDA22F350CD
:1010D800DE26F450DD22FA0EE3CF4EF0FD0EE124B9
:1010E800D96EFF0EE220DA6EDF504E02F3CFF4FF26
:1010F800F36AE150FE0FD96EE250DA6EFF0EDA2283
:10110800F350DE26F450DD22FE0EE3CF43F0FF0E4F
:10111800E3CF44F0FA0EE126FF0EE2221200E65277
:10112800E652E652E652F29EC280C30EC216C19A39
:10113800C198C150F00B0E09C16EC08EC282C2B2F6
:10114800A8EF08F0AAEF08F0A3EF08F0FE0EC3CF4F
:10115800E3FFFF0EC4CFE3FFF28E330EE66E010EFF
:10116800E66EFC0EE3CF4DF0FD0EE3CF4EF0960E8B
:101178004D02F3CF4BF0F4CF4CF04E02F3504C2617
:101188004BC0E6FF4CC0E6FF09EC04F0FC0E43C080
:10119800E3FFFD0E44C0E3FFFC0EE3CF43F0FD0E7A
:1011A800E3CF44F0E552E552E552E5521200E6522B
:1011B800E652FE0EE124436EFF0EE220446E43C069
:1011C800E6FF44C0E6FF290EE66E000EE66E79ECF7
:1011D80005F0FF0EE3BE00EF09F0FF0EE3500AE151
:1011E800FE0EE3CF43F01E0E435ED8B0FEEF08F0CC
:1011F80000EF09F004EF09F084EC0AF0DDEF08F0E5
:10120800FF0EE3BE15EF09F0FF0EE3500CE1FE0EF2
:10121800E3CF43F0230E435ED8A015EF09F017EF94
:1012280009F0DDEF08F082EC0AF0DDEF08F0E55296
:10123800E55212001BC080F01CC081F01DC082F076
:101248001EC083F01FC0EDF020C0EEF0000E0001BC
:10125800846F000EEC6F000EEB6F000EF06F000E47
:10126800EF6F710EE66E000EE66E23EE99F0DECF9C
:1012780021F0DDCF22F021C0E6FF22C0E6FF48ECD6
:1012880008F0F10E4324E96E000E4420EA6E20EEC9
:1012980080F0700EDBCFEBFFE806FCE223EE99F05E
:1012A800DE2A000EDD22120020EE06F01F50D9269D
:1012B8002050DA22000EDE6E000EDD6E00EE04F025
:1012C8001F50E9262050EA22DECFEEFFDDCFEDFFEA
:1012D80020EE02F01F50D9262050DA22EECFDEFF92
:1012E800EDCFDDFF080E1F241B6E000E20201C6EA4
:1012F800000E1E6E010E1D6E83EC09F01200F29EA8
:101308001BC0D9FF1CC0DAFF1DC0DEFF1EC0DDFFF9
:1013180020EE10F01B50D9261C50DA22000EDE6E8B
:10132800000EDD6E00EE0EF01B50E9261C50EA227E
:10133800DECFEEFFDDCFEDFF20EE0CF01B50D926FF
:101348001C50DA22EECFDEFFEDCFDDFFF28E120069
:10135800EFEC09F0000E1C6E010E1B6E000E1E6EE7
:10136800040E1D6E180E1F6E140E206E1EEC09F072
:10137800000E1C6E020E1B6E000E1E6E040E1D6EFD
:10138800B60E1F6E110E206E1EEC09F073EC0AF0FB
:10139800CCEF09F006EF00F00C0EF66E150EF76EA6
:1013A800000EF86E0900F5CF63F00900F5CF64F080
:1013B80000EEF1F022EEAAF0EE6ADD50D950FCE121
:1013C800DA50FAE100EE23F0200EEE6AE806FDE1BD
:1013D8000001ACEF09F0000EE8CF99F3000EE8CF5A
:1013E8009AF3000EE8CF97F3000EE8CF98F3000EBB
:1013F8001C6E010E1B6E000E1E6E010E1D6E4C0E35
:101408001F6E140E206E1EEC09F05DEC0AF012003F
:10141800E652E65293EC08F0FE0E43C0E3FFFF0EDF
:1014280044C0E3FFFE0EE3CFE6FFE3CFE6FF290E5D
:10143800E66E000EE66EC7EC04F00EEF0AF0E55219
:10144800E5521200959683B62CEF0AF02FEF0AF0BA
:10145800010E30EF0AF0000EFF0A4E6E4E464E4661
:101468004E468C504E18F70B4E188C6E00F027EF36
:101478000AF01200010E926EC30EC216C19AC198EC
:10148800F00EC1160E0EC16EC08E380EC012C2808C
:10149800C050F80B0609C06E1200F28CF28AF29462
:1014A800D596D550F80B0209D56ED59A000ED66E92
:1014B8001200290E1F6E000E206E000E226E010E05
:1014C800216E58EC09F01200EE0EE3CF43F0EF0E58
:1014D800E3CF44F0EE0EE126FF0EE222120051ECBB
:1014E8000AF07CEC0AF03EEC0AF0F28ED5501200BD
:1014F800000E956E12002AEC06F01200838012008E
:06150800839012000800B0
:020000040020DA
:08000000FFFFFFFFFFFFFFFF00
:020000040030CA
:0E000000FF071B1EFF8181FF0FC00FE00F40A6
:00000001FF
