:020000040000FA
:0400000006EF00F017
:1000080089ED01F013EEC4F0D9EF09F0F29EFE0E6F
:10001800E3CFD9FFFF0EE3CFDAFFDE06000EDD5A8D
:10002800FE0EE3CFD9FFFF0EE3CFDAFF010EDBBEF2
:1000380022EF00F020EF00F085EF01F023EEC0F092
:10004800FE0EE3CF37F0FF0EE3CF38F00E0E372465
:10005800E96E000E3820EA6EEECF37F0EDCF38F0BB
:10006800D8903734356E3834366EFE0EE350352668
:10007800FF0EE3503622020E3524E96E000E3620BC
:10008800EA6EDECFEEFFDDCFEDFF050EE66E000E69
:10009800E66EFC0EE3CF37F0FD0EE3CF38F00E0E20
:1000A8003724D96E000E3820DA6EDECF37F0DDCF78
:1000B80038F0010E3726000E382237C0E6FF38C068
:1000C800E6FFD4EC07F0FE0EE3CF37F0FF0EE3CFE8
:1000D80038F00E0E3724D96E000E3820DA6E2DC097
:1000E800DEFF2EC0DDFFFE0EE3CF37F0FF0EE3CFBD
:1000F80038F00C0E3724D96E000E3820DA6EDE2A5E
:10010800000EDD22F29E23EEC0F0DECF37F0DDCF09
:1001180038F0710E3702F3CF35F0F4CF36F03802ED
:10012800F3503626850E3524D96E010E3620DA6E48
:10013800DE50DE10D8B4A3EF00F0A5EF00F06BEFAF
:1001480001F0076A086A23EEC0F0DECF37F0DDCF92
:1001580038F0710E3702F3CF35F0F4CF36F03802AD
:10016800F35036261E0E3524D96E010E3620DA6E6F
:10017800030EDF6E376E386A23EEC0F0DECF35F03F
:10018800DDCF36F0710E3502F3CF33F0F4CF34F013
:100198003602F3503426210E3324D96E010E342052
:1001A800DA6E37C0DEFF38C0DDFFE050376E386AE0
:1001B80023EEC0F0DECF35F0DDCF36F0710E35021C
:1001C800F3CF33F0F4CF34F03602F3503426230E55
:1001D8003324D96E010E3420DA6E37C0DEFF38C002
:1001E800DDFFD850376E386A23EEC0F0DECF35F029
:1001F800DDCF36F0710E3502F3CF33F0F4CF34F0A3
:100208003602F35034261F0E3324D96E010E3420E3
:10021800DA6E37C0DEFF38C0DDFF23EEC0F0DECF78
:1002280037F0DDCF38F0710E3702F3CF35F0F4CF69
:1002380036F03802F3503626850E3524D96E010E75
:100248003620DA6E000EDE6E000EDD6E07C037F067
:1002580008C038F0030E3702F3CF35F0F4CF36F08C
:100268003802F350362623EEC0F0DECF37F0DDCF6C
:1002780038F0710E3702F3CF33F0F4CF34F0380290
:10028800F35034261A0E376E010E386E0B0E3726D1
:10029800000E382233503726345038223550372450
:1002A800D96E36503820DA6EFDCFDEFFFECFDEFF86
:1002B800FFCFDEFF074A082A0600FC50D8A467EFE4
:1002C80001F069EF01F02AEF01F082EF01F023EE6F
:1002D800C0F0DECF37F0DDCF38F0710E3702F3CF44
:1002E80035F0F4CF36F03802F35036261E0E35249A
:1002F800D96E010E3620DA6E030EDF6EF28EE0EC58
:1003080002F0F28EE552E55212000600E1CF59F0F4
:10031800E2CF5AF0D9CF5BF0DACF5CF0F3CF5DF0E3
:10032800F4CF5EF02DC05FF02EC060F033C061F0F6
:1003380034C062F035C063F036C064F037C065F091
:1003480038C066F014EE84F0000ED66EF29467069C
:10035800D8A068065BEC07F067506810D8A4B7EF20
:1003680001F0B9EF01F0C3EF02F0000E686E080E5D
:10037800676EF29E710EE66E000EE66E23EEC0F01A
:10038800DECF55F0DDCF56F055C0E6FF56C0E6FF8C
:1003980048EC08F0850E2D24D96E010E2E20DA6E59
:1003A800DE50DE10D8B4DBEF01F0DDEF01F0A8EF8E
:1003B80002F0000E086E000E076E710EE66E000E5B
:1003C800E66E23EEC0F0DECF55F0DDCF56F055C017
:1003D800E6FF56C0E6FF48EC08F01E0E2D24D96E45
:1003E800010E2E20DA6E000EDF6E556E566A710E03
:1003F800E66E000EE66E23EEC0F0DECF57F0DDCFDE
:1004080058F057C0E6FF58C0E6FF48EC08F0210E48
:100418002D24D96E010E2E20DA6E55C0DEFF56C08F
:10042800DDFFE050556E566A710EE66E000EE66E00
:1004380023EEC0F0DECF57F0DDCF58F057C0E6FF0F
:1004480058C0E6FF48EC08F0230E2D24D96E010EA3
:100458002E20DA6E55C0DEFF56C0DDFFD850556E2F
:10046800566A710EE66E000EE66E23EEC0F0DECF21
:1004780057F0DDCF58F057C0E6FF58C0E6FF48EC0C
:1004880008F01F0E2D24D96E010E2E20DA6E55C0ED
:10049800DEFF56C0DDFF710EE66E000EE66E23EE3F
:1004A800C0F0DECF55F0DDCF56F055C0E6FF56C0A0
:1004B800E6FF48EC08F0850E2D24D96E010E2E209B
:1004C800DA6E000EDE6E000EDD6E710EE66E000E48
:1004D800E66E23EEC0F0DECF55F0DDCF56F055C006
:1004E800E6FF56C0E6FF48EC08F01A0E576E010EFC
:1004F800586E0B0E5726000E58222D5057262E5098
:100508005822030EE66E000EE66E07C0E6FF08C02E
:10051800E6FF48EC08F02D505724D96E2E5058208D
:10052800DA6EFDCFDEFFFECFDEFFFFCFDEFF074A2C
:10053800082A0600FC50D8A4A4EF02F0A6EF02F0A7
:1005480069EF02F0C0EF02F0710EE66E000EE66E83
:1005580023EEC0F0DECF55F0DDCF56F055C0E6FFF4
:1005680056C0E6FF48EC08F01E0E2D24D96E010E89
:100578002E20DA6E000EDF6EF28EE0EC02F066C01E
:1005880038F065C037F064C036F063C035F062C03B
:1005980034F061C033F060C02EF05FC02DF05EC053
:1005A800F4FF5DC0F3FF5CC0DAFF5BC0D9FF5AC03F
:1005B800E2FF59C0E1FF1100E652E652E652E65268
:1005C800F29ED5EC0AF02DC0C0F32EC0C1F3FE0E8A
:1005D800C0C3E3FFFF0EC1C3E3FFFE0EE3CF37F056
:1005E800FF0EE3CF38F0710E3702F3CF35F0F4CFBA
:1005F80036F03802F35036261E0E3524D96E010E19
:100608003620DA6E010EDF6EFC6AFE0EE3CF37F09D
:10061800FF0EE3CF38F0710E3702F3CF35F0F4CF89
:1006280036F03802F3503626850E3524D96E010E81
:100638003620DA6EDE50DE10D8B425EF03F027EF4F
:1006480003F0E4EF03F0FE0EE3CF37F0FF0EE3CF45
:1006580038F0710E3702F3CF35F0F4CF36F03802A8
:10066800F3503626230E3524D96E010E3620DA6E65
:10067800DF50E06EFE0EE3CF37F0FF0EE3CF38F029
:10068800710E3702F3CF35F0F4CF36F03802F3505D
:1006980036261F0E3524D96E010E3620DA6EDF504D
:1006A800D86EFE0EE3CF37F0FF0EE3CF38F0710EB1
:1006B8003702F3CF35F0F4CF36F03802F350362650
:1006C800210E3524D96E010E3620DA6EDF50386ED1
:1006D8003850FE0EE3CF37F0FF0EE3CF38F0710E3F
:1006E8003702F3CF35F0F4CF36F03802F350362620
:1006F800850E3524D96E010E3620DA6EDECF37F03E
:10070800DDCF38F0FC0E37C0E3FFFD0E38C0E3FF45
:10071800D5EF03F00500FC0EE3CF37F0FD0EE3CF75
:1007280038F0030E3702F3CF35F0F4CF36F0380245
:10073800F3503626FE0EE3CF37F0FF0EE3CF38F046
:10074800710E3702F3CF33F0F4CF34F03802F350A0
:1007580034261A0E376E010E386E080E3726000E34
:100768003822335037263450382235503724D96E42
:1007780036503820DA6EDECFFDFFDECFFEFFDDCF4C
:10078800FFFFFC0EE3CF2DF0010E2D5EFC0E2DC0F9
:10079800E3FFFD0EE3CF2DF0000E2D5AFD0E2DC008
:1007A800E3FFFC0EE3CF2DF0FD0EE3502D10D8A48F
:1007B800E0EF03F0E2EF03F08EEF03F003EF04F055
:1007C8000500FE0EE3CF37F0FF0EE3CF38F0710ED1
:1007D8003702F3CF35F0F4CF36F03802F35036262F
:1007E800870E3524D96E010E3620DA6EDECF37F04B
:1007F800DDCF38F037C0FDFF38C0FEFFFF6AF28E4C
:10080800E552E552E552E5521200E652E652E6524A
:10081800E652FE0EE36AF90EE3BE17EF04F015EF99
:1008280004F020EF04F0F80EE36CF90EE31ED8B0E4
:10083800E32AFE0EE36AE32AFB0EE3BE28EF04F088
:1008480026EF04F030EF04F0FA0EE36CFB0EE31E23
:10085800D8B0E32AFE0EE370FC0EE36AFD0EE36AED
:10086800F80EE3CF2DF0F90EE3502D10D8B43FEF7A
:1008780004F041EF04F0ADEF04F0FF0EE36AE32A61
:1008880057EF04F0F80EE350D890E8342D6EF80EC8
:100898002DC0E3FFF90EE350E8342D6EF90E2DC09C
:1008A800E3FFFF0EE32AF90EE3AE5DEF04F05FEF1E
:1008B80004F046EF04F0FC0EE350D890E8342D6EB7
:1008C800FC0E2DC0E3FFFD0EE350E8342D6EFD0E47
:1008D8002DC0E3FFF80EE3CF37F0F90EE3CF38F081
:1008E800FA0EE3CF35F0FB0EE3CF36F03750355C28
:1008F80038503658D8A083EF04F085EF04F099EF0C
:1009080004F0FA0EE3502D6EF80EE3502D5EFA0E49
:100918002DC0E3FFFB0EE3502D6EF90EE3502D5A68
:10092800FB0E2DC0E3FFFC0EE380D890F90EE332F6
:10093800F80EE332FF0EE3502D6E010E2D5EFF0E12
:100948002DC0E3FFD8A4ABEF04F0ADEF04F05FEFE8
:1009580004F0FE0EE350D8B4B4EF04F0B6EF04F0A0
:10096800BCEF04F0FC0EE36CFD0EE31ED8B0E32AE6
:10097800FC0EE3CF2DF0FD0EE3CF2EF0F80EE126AE
:10098800FF0EE2221200E652F29EFF0EE36AFD0E0F
:10099800E3CF37F0FE0EE3CF38F0020E3724D96EDE
:1009A800000E3820DA6EDE50DE10D8A4DEEF04F038
:1009B800E0EF04F05AEF05F0E150FB0FD96EE2507A
:1009C800DA6EFF0EDA22FD0EE3CF37F0FE0EE3CF2C
:1009D80038F0060E3724E96E000E3820EA6EEECFA6
:1009E80037F0EDCF38F0D8903734356E3834366E6E
:1009F800FD0EE3CF37F0FE0EE3CF38F03550372445
:100A0800E96E36503820EA6EDECFEEFFDDCFEDFF1F
:100A1800FD0EE3CF37F0FE0EE3CF38F0060E372495
:100A2800D96E000E3820DA6E000EDE6E000EDD6E16
:100A3800FD0EE3CF37F0FE0EE3CF38F0020E372479
:100A4800D96E000E3820DA6EDE2A000EDD22FF0E87
:100A5800E36AE32AFD0EE3CF37F0FE0EE3CF38F06A
:100A6800080E3724D96E000E3820DA6E120EDECF4B
:100A7800E6FFE82C3BEF05F0BEEC0AF02EBE49EF8E
:100A880005F047EF05F06AEF05F0FD0EE350080F9B
:100A9800376EFE0EE3CF38F0000E382237C0E6FF7F
:100AA80038C0E6FFC5EC06F06AEF05F0F28EFD0EE1
:100AB800E350080F376EFE0EE3CF38F0000E3822F1
:100AC80037C0E6FF38C0E6FF0AEC00F0FF0EE3503F
:100AD800D8B471EF05F073EF05F0CBEF04F0F28EA8
:100AE800FB0EE126FF0EE2221200E652F29EFF0EF6
:100AF800E36AFD0EE3CF37F0FE0EE3CF38F0020EC7
:100B08003724D96E000E3820DA6EDE50DE10D8B4E5
:100B180090EF05F092EF05F00BEF06F0FD0EE3CF36
:100B280037F0FE0EE3CF38F0040E3724D96E000EEE
:100B38003820DA6EDECF37F0DDCF38F0D890373492
:100B4800356E3834366EFD0EE3CF37F0FE0EE3CF48
:100B580038F035503724D96E36503820DA6EFB0E0F
:100B6800E3CFE9FFFC0EE3CFEAFFDECFEEFFDDCFF8
:100B7800EDFFFD0EE3CF37F0FE0EE3CF38F0040EA5
:100B88003724D96E000E3820DA6E000EDE6E000EA5
:100B9800DD6EFD0EE3CF37F0FE0EE3CF38F0020E28
:100BA8003724D96E000E3820DA6EDE06000EDD5AC4
:100BB800FF0EE36AE32AFD0EE3CF37F0FE0EE3CF24
:100BC80038F0080E3724D96E000E3820DA6E120E6F
:100BD800DECFE6FFE82CECEF05F0BEEC0AF02EBE07
:100BE800FAEF05F0F8EF05F01BEF06F0FD0EE35005
:100BF800080F376EFE0EE3CF38F0000E382237C0EC
:100C0800E6FF38C0E6FFC5EC06F01BEF06F0F28EF3
:100C1800FD0EE350080F376EFE0EE3CF38F0000EDE
:100C2800382237C0E6FF38C0E6FF0AEC00F0FF0EB6
:100C3800E350D8B422EF06F024EF06F07DEF05F07C
:100C4800F28EFB0EE126FF0EE2221200E652E65279
:100C5800E652E652FC0EC0C3E3FFFD0EC1C3E3FF3C
:100C6800FE0EE36AFF0EE36A23EEC2F0DECF37F032
:100C7800DDCF38F037C0E6FF38C0E6FFFA0EE350A4
:100C8800010F376EFB0EE3CF38F0000E382237C065
:100C9800E6FF38C0E6FFD4EC07F0FC0E2DC0E3FFFA
:100CA800FD0E2EC0E3FF23EEC2F0FE0EE350DE1869
:100CB80008E1FF0EE350DE18D8A465EF06F067EFF1
:100CC80006F06DEF06F0000E2D6E000E2E6EC0EFD2
:100CD80006F0FE0EE350010F2D6EFE0E2DC0E3FF51
:100CE8002D6AFF0EE3502D202D6EFF0E2DC0E3FF61
:100CF800FC0EE3CF37F0FD0EE3CF38F0710E37026C
:100D0800F3CF35F0F4CF36F03802F35036261E0E06
:100D18003524D96E010E3620DA6EDF50D8A497EF4D
:100D280006F099EF06F038EF06F0FC0EE3CF37F047
:100D3800FD0EE3CF38F0710E3702F3CF35F0F4CF64
:100D480036F03802F3503626870E3524D96E010E58
:100D58003620DA6EE40EDE1809E1140EDE18D8B477
:100D6800B8EF06F0BAEF06F038EF06F0FC0EE3CF66
:100D78002DF0FD0EE3CF2EF0E552E552E552E55297
:100D88001200F29EFE0EE3CFD9FFFF0EE3CFDAFF8B
:100D9800DE2A000EDD22FE0EE3CFD9FFFF0EE3CFE1
:100DA800DAFF010EDBBEE4EF06F0010EDB5006E1D0
:100DB800DE04D8B0E2EF06F0E4EF06F057EF07F0F4
:100DC800FE0EE3CF37F0FF0EE3CF38F0100E3724D6
:100DD800D96E000E3820DA6EDECF37F0DDCF38F06E
:100DE800D8903734356E3834366EFE0EE3503526DB
:100DF800FF0EE3503622020E3524D96E000E36203F
:100E0800DA6EDECF37F0DDCF38F0710E3702F3CF70
:100E180035F0F4CF36F03802F35036261E0E35245E
:100E2800D96E010E3620DA6E000EDF6E050EE66E04
:100E3800000EE66EFC0EE3CF37F0FD0EE3CF38F080
:100E4800100E3724D96E000E3820DA6EDECF37F058
:100E5800DDCF38F0010E3726000E382237C0E6FF06
:100E680038C0E6FFD4EC07F0FE0EE3CF37F0FF0EF4
:100E7800E3CF38F0100E3724D96E000E3820DA6E22
:100E88002DC0DEFF2EC0DDFFFE0EE3CF37F0FF0ED4
:100E9800E3CF38F00C0E3724D96E000E3820DA6E06
:100EA800DE06000EDD5AF28EE552E5521200000E03
:100EB800526E000E516E000E546E000E536EC2EF4D
:100EC80007F0710EE66E000EE66E53C0E6FF54C0E2
:100ED800E6FF48EC08F01E0E2D24D96E010E2E20D8
:100EE800DA6E020EDE18D8A47CEF07F07EEF07F06A
:100EF800C0EF07F0710EE66E000EE66E53C0E6FF17
:100F080054C0E6FF48EC08F0890E2D24D96E010E76
:100F18002E20DA6EDE06000EDD5A710EE66E000E29
:100F2800E66E53C0E6FF54C0E6FF48EC08F0890EB1
:100F38002D24D96E010E2E20DA6EDE50DE10D8A4D4
:100F4800A8EF07F0AAEF07F0C0EF07F0710EE66E02
:100F5800000EE66E53C0E6FF54C0E6FF48EC08F00A
:100F68001E0E2D24D96E010E2E20DA6E000EDF6EB5
:100F7800000E526E010E516E534A542A23EEC2F0EF
:100F8800DE50535CDE505458D8A0CDEF07F0CFEFB9
:100F980007F065EF07F051C04DF052C04EF0120057
:100FA800E652FB0EE3CF2DF0FC0EE3502D10D8B423
:100FB800E0EF07F0E2EF07F03DEF08F0FF0EE36A1D
:100FC800E32AF8EF07F0FB0EE350D890E8342D6ED3
:100FD800FB0E2DC0E3FFFC0EE350E8342D6EFC0E33
:100FE8002DC0E3FFFF0EE32AFC0EE3AEFEEF07F091
:100FF80000EF08F0E7EF07F0FB0EE3CF37F0FC0E49
:10100800E3CF38F0FD0EE3CF35F0FE0EE3CF36F038
:101018003750355C38503658D8A015EF08F017EF20
:1010280008F029EF08F0FD0EE3502D6EFB0EE3509B
:101038002D5EFD0E2DC0E3FFFE0EE3502D6EFC0E5F
:10104800E3502D5AFE0E2DC0E3FFD890FC0EE3327C
:10105800FB0EE332FF0EE3502D6E010E2D5EFF0EE8
:101068002DC0E3FFD8A43BEF08F03DEF08F000EFF8
:1010780008F0FD0EE3CF2DF0FE0EE3CF2EF0FB0EB1
:10108800E126FF0EE2221200E652E652FA0EE3CF04
:1010980038F0FC0EE3503802FE0EF3CFE3FFFF0EEC
:1010A800F4CFE3FFFB0EE124D96EFF0EE220DA6EE7
:1010B800DF50386EFC0EE3503802F3CFF4FFF36ACA
:1010C800E150FE0FD96EE250DA6EFF0EDA22F350CD
:1010D800DE26F450DD22FA0EE3CF38F0FD0EE124CF
:1010E800D96EFF0EE220DA6EDF503802F3CFF4FF3C
:1010F800F36AE150FE0FD96EE250DA6EFF0EDA2283
:10110800F350DE26F450DD22FE0EE3CF2DF0FF0E65
:10111800E3CF2EF0FA0EE126FF0EE2221200E6528D
:10112800E652E652E652F29EC280C30EC216C19A39
:10113800C198C150F00B0E09C16EC08EC282C2B2F6
:10114800A8EF08F0AAEF08F0A3EF08F0FE0EC3CF4F
:10115800E3FFFF0EC4CFE3FFF28E330EE66E010EFF
:10116800E66EFC0EE3CF37F0FD0EE3CF38F0960EB7
:101178003702F3CF35F0F4CF36F03802F350362685
:1011880035C0E6FF36C0E6FF09EC04F0FC0E2DC0C2
:10119800E3FFFD0E2EC0E3FFFC0EE3CF2DF0FD0EA6
:1011A800E3CF2EF0E552E552E552E5521200E65241
:1011B800E652FE0EE1242D6EFF0EE2202E6E2DC0AB
:1011C800E6FF2EC0E6FF000EE66E010EE66E79EC35
:1011D80005F0FF0EE3BE00EF09F0FF0EE3500AE151
:1011E800FE0EE3CF2DF01E0E2D5ED8B0FEEF08F0F8
:1011F80000EF09F004EF09F0DAEC0AF0DDEF08F08F
:10120800FF0EE3BE15EF09F0FF0EE3500CE1FE0EF2
:10121800E3CF2DF0230E2D5ED8A015EF09F017EFC0
:1012280009F0DDEF08F0D8EC0AF0DDEF08F0E55240
:10123800E552120080C088F081C089F082C0F3F0C6
:1012480083C0F4F0000E00018A6F000EF26F000EEA
:10125800F16F000EF66F000EF56F710EE66E000E60
:10126800E66E23EEC2F0DECF84F0DDCF85F084C0D9
:10127800E6FF85C0E6FF48EC08F01A0E2D24E96E5B
:10128800010E2E20EA6E20EE86F0700EDBCFEBFF0B
:10129800E806FCE223EEC2F0DE2A000EDD22120090
:1012A800090EE66E000EE66E0AEC00F002BE66EF6E
:1012B80009F0025009E1220E015CD8A066EF09F09E
:1012C80068EF09F06AEF09F0D8EC0AF002BE78EF8F
:1012D80009F0025007E11F0E015CD8B076EF09F063
:1012E80078EF09F07AEF09F0DAEC0AF01B0EE66EF7
:1012F800000EE66EC5EC06F054EF09F0120000018E
:1013080020EE06F08451D9268551DA22000EDE6ED1
:10131800000EDD6E00EE04F08451E9268551EA22C4
:10132800DECFEEFFDDCFEDFF20EE02F08451D926AF
:101338008551DA22EECFDEFFEDCFDDFF080E8425E2
:10134800806F000E8521816F000E836F010E826F02
:10135800AFEC09F01200F29E80C0D9FF81C0DAFF1D
:1013680082C0DEFF83C0DDFF000120EE10F0805157
:10137800D9268151DA22000EDE6E000EDD6E00EEF7
:101388000EF08051E9268151EA22DECFEEFFDDCF53
:10139800EDFF20EE0CF08051D9268151DA22EECFF4
:1013A800DEFFEDCFDDFFF28E1200B80EF66E150EE1
:1013B800F76E000EF86E0900F5CF67F00900F5CF5B
:1013C80068F001EE1AF022EEAAF0EE6ADD50D9506C
:1013D800FCE1DA50FAE101EE00F01A0EEE6AE806D6
:1013E800FDE100EE01F02C0EEE6AE806FDE10001D9
:1013F80020EF0AF0000E0001846F010E856F000EC9
:10140800876F010E866F83EC09F01B0E0001806F59
:10141800000E816F000E836F010E826FAFEC09F032
:10142800090E0001806F000E816F000E836F000EA1
:10143800826FAFEC09F012003EEC0AF0000E0001DA
:10144800816F040E806FB00E826F140E836F1EECD6
:1014580009F0000E0001816F040E806FB60E826FD6
:10146800110E836F1EEC09F0C9EC0AF03AEF0AF08E
:1014780006EF00F0000EE8CFC2F3000EE8CFC3F38A
:10148800000EE8CFC0F3000EE8CFC1F3000E000154
:10149800816F010E806FE40E826F140E836F1EEC55
:1014A80009F0FEEC09F01200E652E65293EC08F05F
:1014B800FE0E2DC0E3FFFF0E2EC0E3FFFE0EE3CFAE
:1014C800E6FFE3CFE6FF000EE66E010EE66EC7EC20
:1014D80004F05AEF0AF0E552E5521200959683B6E9
:1014E80078EF0AF07BEF0AF0010E7CEF0AF0000EAD
:1014F800FF0A386E3846384638468C503818F70B8D
:1015080038188C6E00F073EF0AF012001B0EE66EAE
:10151800000EE66E0AEC00F093EC08F02DC001F026
:101528002EC002F0090EE66E000EE66EC5EC06F05F
:101538008AEF0AF01200010E926EC30EC216C19A0B
:10154800C198F00EC1160E0EC16EC08E380EC012B4
:10155800C280C050F80B0609C06E1200F28CF28AE5
:10156800F294D596D550F80B0209D56ED59A000E8F
:10157800D66E1200EE0EE3CF2DF0EF0EE3CF2EF075
:10158800EE0EE126FF0EE2221200B2EC0AF0D2ECD7
:101598000AF09FEC0AF0F28ED5501200000E956EFC
:1015A80012002AEC06F012008380120083901200C9
:0215B800080029
:020000040020DA
:08000000FFFFFFFFFFFFFFFF00
:020000040030CA
:0E000000FF071B1EFF8181FF0FC00FE00F40A6
:00000001FF
