:020000040000FA
:0400000006EF00F017
:1000080089ED01F013EEBCF0D6EF09F0F29EFE0E7A
:10001800E3CFD9FFFF0EE3CFDAFFDE06000EDD5A8D
:10002800FE0EE3CFD9FFFF0EE3CFDAFF010EDBBEF2
:1000380022EF00F020EF00F085EF01F023EEB8F09A
:10004800FE0EE3CF3CF0FF0EE3CF3DF00E0E3C2456
:10005800E96E000E3D20EA6EEECF3CF0EDCF3DF0AC
:10006800D8903C343A6E3D343B6EFE0EE3503A264F
:10007800FF0EE3503B22020E3A24E96E000E3B20AD
:10008800EA6EDECFEEFFDDCFEDFF050EE66E000E69
:10009800E66EFC0EE3CF3CF0FD0EE3CF3DF00E0E16
:1000A8003C24D96E000E3D20DA6EDECF3CF0DDCF69
:1000B8003DF0010E3C26000E3D223CC0E6FF3DC04F
:1000C800E6FFD4EC07F0FE0EE3CF3CF0FF0EE3CFE3
:1000D8003DF00E0E3C24D96E000E3D20DA6E32C083
:1000E800DEFF33C0DDFFFE0EE3CF3CF0FF0EE3CFB3
:1000F8003DF00C0E3C24D96E000E3D20DA6EDE2A4F
:10010800000EDD22F29E23EEB8F0DECF3CF0DDCF0C
:100118003DF0710E3C02F3CF3AF0F4CF3BF03D02D4
:10012800F3503B267D0E3A24D96E010E3B20DA6E41
:10013800DE50DE10D8B4A3EF00F0A5EF00F06BEFAF
:1001480001F0036A046A23EEB8F0DECF3CF0DDCF9D
:100158003DF0710E3C02F3CF3AF0F4CF3BF03D0294
:10016800F3503B26160E3A24D96E010E3B20DA6E68
:10017800030EDF6E3C6E3D6A23EEB8F0DECF3AF038
:10018800DDCF3BF0710E3A02F3CF38F0F4CF39F0FF
:100198003B02F3503926190E3824D96E010E392046
:1001A800DA6E3CC0DEFF3DC0DDFFE0503C6E3D6ACC
:1001B80023EEB8F0DECF3AF0DDCF3BF0710E3A0215
:1001C800F3CF38F0F4CF39F03B02F35039261B0E49
:1001D8003824D96E010E3920DA6E3CC0DEFF3DC0EE
:1001E800DDFFD8503C6E3D6A23EEB8F0DECF3AF022
:1001F800DDCF3BF0710E3A02F3CF38F0F4CF39F08F
:100208003B02F3503926170E3824D96E010E3920D7
:10021800DA6E3CC0DEFF3DC0DDFF23EEB8F0DECF76
:100228003CF0DDCF3DF0710E3C02F3CF3AF0F4CF55
:100238003BF03D02F3503B267D0E3A24D96E010E69
:100248003B20DA6E000EDE6E000EDD6E03C03CF061
:1002580004C03DF0030E3C02F3CF3AF0F4CF3BF07C
:100268003D02F3503B2623EEB8F0DECF3CF0DDCF65
:100278003DF0710E3C02F3CF38F0F4CF39F03D0277
:10028800F3503926120E3C6E010E3D6E0B0E3C26C5
:10029800000E3D2238503C2639503D223A503C242D
:1002A800D96E3B503D20DA6EFDCFDEFFFECFDEFF7C
:1002B800FFCFDEFF034A042A0600FC50D8A467EFEC
:1002C80001F069EF01F02AEF01F082EF01F023EE6F
:1002D800B8F0DECF3CF0DDCF3DF0710E3C02F3CF3D
:1002E8003AF0F4CF3BF03D02F3503B26160E3A2489
:1002F800D96E010E3B20DA6E030EDF6EF28EE0EC53
:1003080002F0F28EE552E55212000600E1CF5EF0EF
:10031800E2CF5FF0D9CF60F0DACF61F0F3CF62F0CF
:10032800F4CF63F032C064F033C065F038C066F0D3
:1003380039C067F03AC068F03BC069F03CC06AF069
:100348003DC06BF014EE7EF0000ED66EF2946C0693
:10035800D8A06D065BEC07F06C506D10D8A4B7EF11
:1003680001F0B9EF01F0C3EF02F0000E6D6E080E58
:100378006C6EF29E710EE66E000EE66E23EEB8F01D
:10038800DECF5AF0DDCF5BF05AC0E6FF5BC0E6FF78
:1003980048EC08F07D0E3224D96E010E3320DA6E57
:1003A800DE50DE10D8B4DBEF01F0DDEF01F0A8EF8E
:1003B80002F0000E046E000E036E710EE66E000E63
:1003C800E66E23EEB8F0DECF5AF0DDCF5BF05AC010
:1003D800E6FF5BC0E6FF48EC08F0160E3224D96E43
:1003E800010E3320DA6E000EDF6E5A6E5B6A710EF4
:1003F800E66E000EE66E23EEB8F0DECF5CF0DDCFE1
:100408005DF05CC0E6FF5DC0E6FF48EC08F0190E41
:100418003224D96E010E3320DA6E5AC0DEFF5BC07B
:10042800DDFFE0505A6E5B6A710EE66E000EE66EF6
:1004380023EEB8F0DECF5CF0DDCF5DF05CC0E6FF08
:100448005DC0E6FF48EC08F01B0E3224D96E010EA1
:100458003320DA6E5AC0DEFF5BC0DDFFD8505A6E1B
:100468005B6A710EE66E000EE66E23EEB8F0DECF24
:100478005CF0DDCF5DF05CC0E6FF5DC0E6FF48ECF8
:1004880008F0170E3224D96E010E3320DA6E5AC0E6
:10049800DEFF5BC0DDFF710EE66E000EE66E23EE3A
:1004A800B8F0DECF5AF0DDCF5BF05AC0E6FF5BC094
:1004B800E6FF48EC08F07D0E3224D96E010E332099
:1004C800DA6E000EDE6E000EDD6E710EE66E000E48
:1004D800E66E23EEB8F0DECF5AF0DDCF5BF05AC0FF
:1004E800E6FF5BC0E6FF48EC08F0120E5C6E010EFA
:1004F8005D6E0B0E5C26000E5D2232505C2633507A
:100508005D22030EE66E000EE66E03C0E6FF04C031
:10051800E6FF48EC08F032505C24D96E33505D2079
:10052800DA6EFDCFDEFFFECFDEFFFFCFDEFF034A30
:10053800042A0600FC50D8A4A4EF02F0A6EF02F0AB
:1005480069EF02F0C0EF02F0710EE66E000EE66E83
:1005580023EEB8F0DECF5AF0DDCF5BF05AC0E6FFED
:100568005BC0E6FF48EC08F0160E3224D96E010E87
:100578003320DA6E000EDF6EF28EE0EC02F06BC014
:100588003DF06AC03CF069C03BF068C03AF067C013
:1005980039F066C038F065C033F064C032F063C02B
:1005A800F4FF62C0F3FF61C0DAFF60C0D9FF5FC02B
:1005B800E2FF5EC0E1FF1100E652E652E652E65263
:1005C800F29ECCEC0AF032C0B8F333C0B9F3FE0E99
:1005D800B8C3E3FFFF0EB9C3E3FFFE0EE3CF3CF061
:1005E800FF0EE3CF3DF0710E3C02F3CF3AF0F4CFAB
:1005F8003BF03D02F3503B26160E3A24D96E010E0D
:100608003B20DA6E010EDF6EFC6AFE0EE3CF3CF093
:10061800FF0EE3CF3DF0710E3C02F3CF3AF0F4CF7A
:100628003BF03D02F3503B267D0E3A24D96E010E75
:100638003B20DA6EDE50DE10D8B425EF03F027EF4A
:1006480003F0E4EF03F0FE0EE3CF3CF0FF0EE3CF40
:100658003DF0710E3C02F3CF3AF0F4CF3BF03D028F
:10066800F3503B261B0E3A24D96E010E3B20DA6E5E
:10067800DF50E06EFE0EE3CF3CF0FF0EE3CF3DF01F
:10068800710E3C02F3CF3AF0F4CF3BF03D02F35049
:100698003B26170E3A24D96E010E3B20DA6EDF5046
:1006A800D86EFE0EE3CF3CF0FF0EE3CF3DF0710EA7
:1006B8003C02F3CF3AF0F4CF3BF03D02F3503B2637
:1006C800190E3A24D96E010E3B20DA6EDF503D6ECA
:1006D8003D50FE0EE3CF3CF0FF0EE3CF3DF0710E30
:1006E8003C02F3CF3AF0F4CF3BF03D02F3503B2607
:1006F8007D0E3A24D96E010E3B20DA6EDECF3CF037
:10070800DDCF3DF0FC0E3CC0E3FFFD0E3DC0E3FF36
:10071800D5EF03F00500FC0EE3CF3CF0FD0EE3CF70
:100728003DF0030E3C02F3CF3AF0F4CF3BF03D022C
:10073800F3503B26FE0EE3CF3CF0FF0EE3CF3DF037
:10074800710E3C02F3CF38F0F4CF39F03D02F3508C
:100758003926120E3C6E010E3D6E080E3C26000E28
:100768003D2238503C2639503D223A503C24D96E1F
:100778003B503D20DA6EDECFFDFFDECFFEFFDDCF42
:10078800FFFFFC0EE3CF32F0010E325EFC0E32C0EA
:10079800E3FFFD0EE3CF32F0000E325AFD0E32C0F9
:1007A800E3FFFC0EE3CF32F0FD0EE3503210D8A485
:1007B800E0EF03F0E2EF03F08EEF03F003EF04F055
:1007C8000500FE0EE3CF3CF0FF0EE3CF3DF0710EC7
:1007D8003C02F3CF3AF0F4CF3BF03D02F3503B2616
:1007E8007F0E3A24D96E010E3B20DA6EDECF3CF044
:1007F800DDCF3DF03CC0FDFF3DC0FEFFFF6AF28E3D
:10080800E552E552E552E5521200E652E652E6524A
:10081800E652FE0EE36AF90EE3BE17EF04F015EF99
:1008280004F020EF04F0F80EE36CF90EE31ED8B0E4
:10083800E32AFE0EE36AE32AFB0EE3BE28EF04F088
:1008480026EF04F030EF04F0FA0EE36CFB0EE31E23
:10085800D8B0E32AFE0EE370FC0EE36AFD0EE36AED
:10086800F80EE3CF32F0F90EE3503210D8B43FEF70
:1008780004F041EF04F0ADEF04F0FF0EE36AE32A61
:1008880057EF04F0F80EE350D890E834326EF80EC3
:1008980032C0E3FFF90EE350E834326EF90E32C08D
:1008A800E3FFFF0EE32AF90EE3AE5DEF04F05FEF1E
:1008B80004F046EF04F0FC0EE350D890E834326EB2
:1008C800FC0E32C0E3FFFD0EE350E834326EFD0E3D
:1008D80032C0E3FFF80EE3CF3CF0F90EE3CF3DF072
:1008E800FA0EE3CF3AF0FB0EE3CF3BF03C503A5C14
:1008F8003D503B58D8A083EF04F085EF04F099EF02
:1009080004F0FA0EE350326EF80EE350325EFA0E3F
:1009180032C0E3FFFB0EE350326EF90EE350325A59
:10092800FB0E32C0E3FFFC0EE380D890F90EE332F1
:10093800F80EE332FF0EE350326E010E325EFF0E08
:1009480032C0E3FFD8A4ABEF04F0ADEF04F05FEFE3
:1009580004F0FE0EE350D8B4B4EF04F0B6EF04F0A0
:10096800BCEF04F0FC0EE36CFD0EE31ED8B0E32AE6
:10097800FC0EE3CF32F0FD0EE3CF33F0F80EE126A4
:10098800FF0EE2221200E652F29EFF0EE36AFD0E0F
:10099800E3CF3CF0FE0EE3CF3DF0020E3C24D96ECF
:1009A800000E3D20DA6EDE50DE10D8A4DEEF04F033
:1009B800E0EF04F05AEF05F0E150FB0FD96EE2507A
:1009C800DA6EFF0EDA22FD0EE3CF3CF0FE0EE3CF27
:1009D8003DF0060E3C24E96E000E3D20EA6EEECF97
:1009E8003CF0EDCF3DF0D8903C343A6E3D343B6E50
:1009F800FD0EE3CF3CF0FE0EE3CF3DF03A503C2431
:100A0800E96E3B503D20EA6EDECFEEFFDDCFEDFF15
:100A1800FD0EE3CF3CF0FE0EE3CF3DF0060E3C2486
:100A2800D96E000E3D20DA6E000EDE6E000EDD6E11
:100A3800FD0EE3CF3CF0FE0EE3CF3DF0020E3C246A
:100A4800D96E000E3D20DA6EDE2A000EDD22FF0E82
:100A5800E36AE32AFD0EE3CF3CF0FE0EE3CF3DF060
:100A6800080E3C24D96E000E3D20DA6E120EDECF41
:100A7800E6FFE82C3BEF05F0B5EC0AF033BE49EF92
:100A880005F047EF05F06AEF05F0FD0EE350080F9B
:100A98003C6EFE0EE3CF3DF0000E3D223CC0E6FF6B
:100AA8003DC0E6FFC5EC06F06AEF05F0F28EFD0EDC
:100AB800E350080F3C6EFE0EE3CF3DF0000E3D22E2
:100AC8003CC0E6FF3DC0E6FF0AEC00F0FF0EE35035
:100AD800D8B471EF05F073EF05F0CBEF04F0F28EA8
:100AE800FB0EE126FF0EE2221200E652F29EFF0EF6
:100AF800E36AFD0EE3CF3CF0FE0EE3CF3DF0020EBD
:100B08003C24D96E000E3D20DA6EDE50DE10D8B4DB
:100B180090EF05F092EF05F00BEF06F0FD0EE3CF36
:100B28003CF0FE0EE3CF3DF0040E3C24D96E000EDF
:100B38003D20DA6EDECF3CF0DDCF3DF0D8903C347E
:100B48003A6E3D343B6EFD0EE3CF3CF0FE0EE3CF34
:100B58003DF03A503C24D96E3B503D20DA6EFB0EF6
:100B6800E3CFE9FFFC0EE3CFEAFFDECFEEFFDDCFF8
:100B7800EDFFFD0EE3CF3CF0FE0EE3CF3DF0040E9B
:100B88003C24D96E000E3D20DA6E000EDE6E000E9B
:100B9800DD6EFD0EE3CF3CF0FE0EE3CF3DF0020E1E
:100BA8003C24D96E000E3D20DA6EDE06000EDD5ABA
:100BB800FF0EE36AE32AFD0EE3CF3CF0FE0EE3CF1F
:100BC8003DF0080E3C24D96E000E3D20DA6E120E60
:100BD800DECFE6FFE82CECEF05F0B5EC0AF033BE0B
:100BE800FAEF05F0F8EF05F01BEF06F0FD0EE35005
:100BF800080F3C6EFE0EE3CF3DF0000E3D223CC0D8
:100C0800E6FF3DC0E6FFC5EC06F01BEF06F0F28EEE
:100C1800FD0EE350080F3C6EFE0EE3CF3DF0000ED4
:100C28003D223CC0E6FF3DC0E6FF0AEC00F0FF0EA7
:100C3800E350D8B422EF06F024EF06F07DEF05F07C
:100C4800F28EFB0EE126FF0EE2221200E652E65279
:100C5800E652E652FC0EB8C3E3FFFD0EB9C3E3FF4C
:100C6800FE0EE36AFF0EE36A23EEBAF0DECF3CF035
:100C7800DDCF3DF03CC0E6FF3DC0E6FFFA0EE35095
:100C8800010F3C6EFB0EE3CF3DF0000E3D223CC051
:100C9800E6FF3DC0E6FFD4EC07F0FC0E32C0E3FFF0
:100CA800FD0E33C0E3FF23EEBAF0FE0EE350DE186C
:100CB80008E1FF0EE350DE18D8A465EF06F067EFF1
:100CC80006F06DEF06F0000E326E000E336EC0EFC8
:100CD80006F0FE0EE350010F326EFE0E32C0E3FF47
:100CE800326AFF0EE3503220326EFF0E32C0E3FF4D
:100CF800FC0EE3CF3CF0FD0EE3CF3DF0710E3C025D
:100D0800F3CF3AF0F4CF3BF03D02F3503B26160EFA
:100D18003A24D96E010E3B20DA6EDF50D8A497EF43
:100D280006F099EF06F038EF06F0FC0EE3CF3CF042
:100D3800FD0EE3CF3DF0710E3C02F3CF3AF0F4CF55
:100D48003BF03D02F3503B267F0E3A24D96E010E4C
:100D58003B20DA6ED60EDE1809E1140EDE18D8B480
:100D6800B8EF06F0BAEF06F038EF06F0FC0EE3CF66
:100D780032F0FD0EE3CF33F0E552E552E552E5528D
:100D88001200F29EFE0EE3CFD9FFFF0EE3CFDAFF8B
:100D9800DE2A000EDD22FE0EE3CFD9FFFF0EE3CFE1
:100DA800DAFF010EDBBEE4EF06F0010EDB5006E1D0
:100DB800DE04D8B0E2EF06F0E4EF06F057EF07F0F4
:100DC800FE0EE3CF3CF0FF0EE3CF3DF0100E3C24C7
:100DD800D96E000E3D20DA6EDECF3CF0DDCF3DF05F
:100DE800D8903C343A6E3D343B6EFE0EE3503A26C2
:100DF800FF0EE3503B22020E3A24D96E000E3B2030
:100E0800DA6EDECF3CF0DDCF3DF0710E3C02F3CF61
:100E18003AF0F4CF3BF03D02F3503B26160E3A244D
:100E2800D96E010E3B20DA6E000EDF6E050EE66EFF
:100E3800000EE66EFC0EE3CF3CF0FD0EE3CF3DF076
:100E4800100E3C24D96E000E3D20DA6EDECF3CF049
:100E5800DDCF3DF0010E3C26000E3D223CC0E6FFF2
:100E68003DC0E6FFD4EC07F0FE0EE3CF3CF0FF0EEA
:100E7800E3CF3DF0100E3C24D96E000E3D20DA6E13
:100E880032C0DEFF33C0DDFFFE0EE3CF3CF0FF0EC5
:100E9800E3CF3DF00C0E3C24D96E000E3D20DA6EF7
:100EA800DE06000EDD5AF28EE552E5521200000E03
:100EB800576E000E566E000E596E000E586EC2EF39
:100EC80007F0710EE66E000EE66E58C0E6FF59C0D8
:100ED800E6FF48EC08F0160E3224D96E010E3320D6
:100EE800DA6E020EDE18D8A47CEF07F07EEF07F06A
:100EF800C0EF07F0710EE66E000EE66E58C0E6FF12
:100F080059C0E6FF48EC08F0810E3224D96E010E74
:100F18003320DA6EDE06000EDD5A710EE66E000E24
:100F2800E66E58C0E6FF59C0E6FF48EC08F0810EAF
:100F38003224D96E010E3320DA6EDE50DE10D8A4CA
:100F4800A8EF07F0AAEF07F0C0EF07F0710EE66E02
:100F5800000EE66E58C0E6FF59C0E6FF48EC08F000
:100F6800160E3224D96E010E3320DA6E000EDF6EB3
:100F7800000E576E010E566E584A592A23EEBAF0E3
:100F8800DE50585CDE505958D8A0CDEF07F0CFEFAF
:100F980007F065EF07F056C052F057C053F0120043
:100FA800E652FB0EE3CF32F0FC0EE3503210D8B419
:100FB800E0EF07F0E2EF07F03DEF08F0FF0EE36A1D
:100FC800E32AF8EF07F0FB0EE350D890E834326ECE
:100FD800FB0E32C0E3FFFC0EE350E834326EFC0E29
:100FE80032C0E3FFFF0EE32AFC0EE3AEFEEF07F08C
:100FF80000EF08F0E7EF07F0FB0EE3CF3CF0FC0E44
:10100800E3CF3DF0FD0EE3CF3AF0FE0EE3CF3BF029
:101018003C503A5C3D503B58D8A015EF08F017EF0C
:1010280008F029EF08F0FD0EE350326EFB0EE35096
:10103800325EFD0E32C0E3FFFE0EE350326EFC0E50
:10104800E350325AFE0E32C0E3FFD890FC0EE33272
:10105800FB0EE332FF0EE350326E010E325EFF0EDE
:1010680032C0E3FFD8A43BEF08F03DEF08F000EFF3
:1010780008F0FD0EE3CF32F0FE0EE3CF33F0FB0EA7
:10108800E126FF0EE2221200E652E652FA0EE3CF04
:101098003DF0FC0EE3503D02FE0EF3CFE3FFFF0EE2
:1010A800F4CFE3FFFB0EE124D96EFF0EE220DA6EE7
:1010B800DF503D6EFC0EE3503D02F3CFF4FFF36AC0
:1010C800E150FE0FD96EE250DA6EFF0EDA22F350CD
:1010D800DE26F450DD22FA0EE3CF3DF0FD0EE124CA
:1010E800D96EFF0EE220DA6EDF503D02F3CFF4FF37
:1010F800F36AE150FE0FD96EE250DA6EFF0EDA2283
:10110800F350DE26F450DD22FE0EE3CF32F0FF0E60
:10111800E3CF33F0FA0EE126FF0EE2221200E65288
:10112800E652E652E652F29EC280C30EC216C19A39
:10113800C198C150F00B0E09C16EC08EC282C2B2F6
:10114800A8EF08F0AAEF08F0A3EF08F0FE0EC3CF4F
:10115800E3FFFF0EC4CFE3FFF28E330EE66E010EFF
:10116800E66EFC0EE3CF3CF0FD0EE3CF3DF0960EAD
:101178003C02F3CF3AF0F4CF3BF03D02F3503B266C
:101188003AC0E6FF3BC0E6FF09EC04F0FC0E32C0B3
:10119800E3FFFD0E33C0E3FFFC0EE3CF32F0FD0E9C
:1011A800E3CF33F0E552E552E552E5521200E6523C
:1011B800E652FE0EE124326EFF0EE220336E32C09C
:1011C800E6FF33C0E6FF060EE66E000EE66E79EC2B
:1011D80005F0FF0EE3BE00EF09F0FF0EE3500AE151
:1011E800FE0EE3CF32F01E0E325ED8B0FEEF08F0EE
:1011F80000EF09F004EF09F0D1EC0AF0DDEF08F098
:10120800FF0EE3BE15EF09F0FF0EE3500CE1FE0EF2
:10121800E3CF32F0230E325ED8A015EF09F017EFB6
:1012280009F0DDEF08F0CFEC0AF0DDEF08F0E55249
:10123800E552120080C088F081C089F082C0F3F0C6
:1012480083C0F4F0000E00018A6F000EF26F000EEA
:10125800F16F000EF66F000EF56F710EE66E000E60
:10126800E66E23EEBAF0DECF84F0DDCF85F084C0E1
:10127800E6FF85C0E6FF48EC08F0120E3224E96E5E
:10128800010E3320EA6E20EE86F0700EDBCFEBFF06
:10129800E806FCE223EEBAF0DE2A000EDD22120098
:1012A800000120EE06F08451D9268551DA22000E7D
:1012B800DE6E000EDD6E00EE04F08451E9268551E5
:1012C800EA22DECFEEFFDDCFEDFF20EE02F0845103
:1012D800D9268551DA22EECFDEFFEDCFDDFF080EED
:1012E8008425806F000E8521816F000E836F010EAB
:1012F800826FACEC09F012000504D8A486EF09F05F
:1013080088EF09F080EF09F002BE94EF09F002506F
:1013180009E1220E015CD8A094EF09F096EF09F0DC
:1013280098EF09F0CFEC0AF002BEA6EF09F00250E0
:1013380007E11F0E015CD8B0A4EF09F0A6EF09F091
:10134800A8EF09F0D1EC0AF0056A80EF09F0120065
:10135800F29E80C0D9FF81C0DAFF82C0DEFF83C061
:10136800DDFF000120EE10F08051D9268151DA22EC
:10137800000EDE6E000EDD6E00EE0EF08051E926E6
:101388008151EA22DECFEEFFDDCFEDFF20EE0CF03B
:101398008051D9268151DA22EECFDEFFEDCFDDFF75
:1013A800F28E1200A60EF66E150EF76E000EF86E8F
:1013B8000900F5CF6CF00900F5CF6DF001EE12F0E1
:1013C80022EEAAF0EE6ADD50D950FCE1DA50FAE1DB
:1013D80001EE00F0120EEE6AE806FDE100EE01F003
:1013E800310EEE6AE806FDE10001FBEF09F037EC8B
:1013F8000AF0000E0001816F020E806F2C0E826FC2
:10140800150E836F1EEC09F0000E0001816F030EAC
:10141800806F000E826F130E836F1EEC09F0C0EC14
:101428000AF015EF0AF006EF00F0060E0001846FCF
:10143800000E856F54EC09F0200E0001806F000E3D
:10144800816F000E836F010E826FACEC09F0000E05
:101458000001806F010E816F000E836F000E826F96
:10146800ACEC09F01200000EE8CFBAF3000EE8CF9A
:10147800BBF3000EE8CFB8F3000EE8CFB9F3000EC7
:101488000001816F010E806FD60E826F140E836F7C
:101498001EEC09F019EC0AF01200E652E65293EC41
:1014A80008F0FE0E32C0E3FFFF0E33C0E3FFFE0E6E
:1014B800E3CFE6FFE3CFE6FF060EE66E000EE66E2C
:1014C800C7EC04F053EF0AF0E552E5521200959686
:1014D80083B671EF0AF074EF0AF0010E75EF0AF0A7
:1014E800000EFF0A3D6E3D463D463D468C503D1878
:1014F800F70B3D188C6E00F06CEF0AF01200010E2D
:10150800926EC30EC216C19AC198F00EC1160E0E85
:10151800C16EC08E380EC012C280C050F80B0609CA
:10152800C06E12000550D8A49CEF0AF09EEF0AF096
:1015380096EF0AF093EC08F032C001F033C002F0E5
:10154800010E056E96EF0AF01200F28CF28AF29400
:10155800D596D550F80B0209D56ED59A000ED66EE1
:101568001200EE0EE3CF32F0EF0EE3CF33F0EE0EC3
:10157800E126FF0EE2221200A9EC0AF0C9EC0AF0FB
:1015880083EC0AF0F28ED5501200000E956E120010
:101598002AEC06F0120083801200839012000800E3
:020000040020DA
:08000000FFFFFFFFFFFFFFFF00
:020000040030CA
:0E000000FF071B1EFF8181FF0FC00FE00F40A6
:00000001FF
