:020000040000FA
:0400000006EF00F017
:1000080089ED01F013EE9DF004EF0AF0F29EFE0E6A
:10001800E3CFD9FFFF0EE3CFDAFFDE06000EDD5A8D
:10002800FE0EE3CFD9FFFF0EE3CFDAFF010EDBBEF2
:1000380022EF00F020EF00F085EF01F023EE99F0B9
:10004800FE0EE3CF4DF0FF0EE3CF4EF00E0E4D2423
:10005800E96E000E4E20EA6EEECF4DF0EDCF4EF079
:10006800D8904D344B6E4E344C6EFE0EE3504B26FA
:10007800FF0EE3504C22020E4B24E96E000E4C207A
:10008800EA6EDECFEEFFDDCFEDFF050EE66E000E69
:10009800E66EFC0EE3CF4DF0FD0EE3CF4EF00E0EF4
:1000A8004D24D96E000E4E20DA6EDECF4DF0DDCF36
:1000B8004EF0010E4D26000E4E224DC0E6FF4EC0FA
:1000C800E6FF07EC08F0FE0EE3CF4DF0FF0EE3CF9E
:1000D8004EF00E0E4D24D96E000E4E20DA6E43C03F
:1000E800DEFF44C0DDFFFE0EE3CF4DF0FF0EE3CF91
:1000F8004EF00C0E4D24D96E000E4E20DA6EDE2A1C
:10010800000EDD22F29E23EE99F0DECF4DF0DDCF1A
:100118004EF0710E4D02F3CF4BF0F4CF4CF04E027F
:10012800F3504C265E0E4B24D96E010E4C20DA6E2D
:10013800DE50DE10D8B4A3EF00F0A5EF00F06BEFAF
:1001480001F0056A066A23EE99F0DECF4DF0DDCFA7
:100158004EF0710E4D02F3CF4BF0F4CF4CF04E023F
:10016800F3504C26F70E4B24D96E000E4C20DA6E55
:10017800030EDF6E4D6E4E6A23EE99F0DECF4BF024
:10018800DDCF4CF0710E4B02F3CF49F0F4CF4AF0BB
:100198004C02F3504A26FA0E4924D96E000E4A2022
:1001A800DA6E4DC0DEFF4EC0DDFFE0504D6E4E6A88
:1001B80023EE99F0DECF4BF0DDCF4CF0710E4B0201
:1001C800F3CF49F0F4CF4AF04C02F3504A26FC0E24
:1001D8004924D96E000E4A20DA6E4DC0DEFF4EC0AB
:1001E800DDFFD8504D6E4E6A23EE99F0DECF4BF00E
:1001F800DDCF4CF0710E4B02F3CF49F0F4CF4AF04B
:100208004C02F3504A26F80E4924D96E000E4A20B3
:10021800DA6E4DC0DEFF4EC0DDFF23EE99F0DECF73
:100228004DF0DDCF4EF0710E4D02F3CF4BF0F4CF11
:100238004CF04E02F3504C265E0E4B24D96E010E44
:100248004C20DA6E000EDE6E000EDD6E05C04DF03D
:1002580006C04EF0030E4D02F3CF4BF0F4CF4CF036
:100268004E02F3504C2623EE99F0DECF4DF0DDCF51
:100278004EF0710E4D02F3CF49F0F4CF4AF04E0222
:10028800F3504A26F30E4D6E000E4E6E0B0E4D26A1
:10029800000E4E2249504D264A504E224B504D24B6
:1002A800D96E4C504E20DA6EFDCFDEFFFECFDEFF5A
:1002B800FFCFDEFF054A062A0600FC50D8A467EFE8
:1002C80001F069EF01F02AEF01F082EF01F023EE6F
:1002D80099F0DECF4DF0DDCF4EF0710E4D02F3CF29
:1002E8004BF0F4CF4CF04E02F3504C26F70E4B2453
:1002F800D96E000E4C20DA6E030EDF6EF28EE0EC43
:1003080002F0F28EE552E55212000600E1CF2FF01E
:10031800E2CF30F0D9CF31F0DACF32F0F3CF33F08B
:10032800F4CF34F043C035F044C036F049C037F05C
:100338004AC038F04BC039F04CC03AF04DC03BF0E1
:100348004EC03CF014EE6AF0000ED66EF2946306CE
:10035800D8A064068EEC07F063506410D8A4B7EFF9
:1003680001F0B9EF01F0C3EF02F0000E646E080E61
:10037800636EF29E710EE66E000EE66E23EE99F045
:10038800DECF2BF0DDCF2CF02BC0E6FF2CC0E6FF34
:100398007BEC08F05E0E4324D96E010E4420DA6E21
:1003A800DE50DE10D8B4DBEF01F0DDEF01F0A8EF8E
:1003B80002F0000E066E000E056E710EE66E000E5F
:1003C800E66E23EE99F0DECF2BF0DDCF2CF02BC0BC
:1003D800E6FF2CC0E6FF7BEC08F0F70E4324D96E4D
:1003E800000E4420DA6E000EDF6E2B6E2C6A710E42
:1003F800E66E000EE66E23EE99F0DECF2DF0DDCF2F
:100408002EF02DC0E6FF2EC0E6FF7BEC08F0FA0EBA
:100418004324D96E000E4420DA6E2BC0DEFF2CC0B8
:10042800DDFFE0502B6E2C6A710EE66E000EE66E54
:1004380023EE99F0DECF2DF0DDCF2EF02DC0E6FFB4
:100448002EC0E6FF7BEC08F0FC0E4324D96E000EAC
:100458004420DA6E2BC0DEFF2CC0DDFFD8502B6E97
:100468002C6A710EE66E000EE66E23EE99F0DECF72
:100478002DF0DDCF2EF02DC0E6FF2EC0E6FF7BEC81
:1004880008F0F80E4324D96E000E4420DA6E2BC013
:10049800DEFF2CC0DDFF710EE66E000EE66E23EE69
:1004A80099F0DECF2BF0DDCF2CF02BC0E6FF2CC06F
:1004B800E6FF7BEC08F05E0E4324D96E010E442063
:1004C800DA6E000EDE6E000EDD6E710EE66E000E48
:1004D800E66E23EE99F0DECF2BF0DDCF2CF02BC0AB
:1004E800E6FF2CC0E6FF7BEC08F0F30E2D6E000E45
:1004F8002E6E0B0E2D26000E2E2243502D26445014
:100508002E22030EE66E000EE66E05C0E6FF06C05C
:10051800E6FF7BEC08F043502D24D96E44502E2082
:10052800DA6EFDCFDEFFFECFDEFFFFCFDEFF054A2E
:10053800062A0600FC50D8A4A4EF02F0A6EF02F0A9
:1005480069EF02F0C0EF02F0710EE66E000EE66E83
:1005580023EE99F0DECF2BF0DDCF2CF02BC0E6FF99
:100568002CC0E6FF7BEC08F0F70E4324D96E000E92
:100578004420DA6E000EDF6EF28EE0EC02F03CC032
:100588004EF03BC04DF03AC04CF039C04BF038C08B
:100598004AF037C049F036C044F035C043F034C0A3
:1005A800F4FF33C0F3FF32C0DAFF31C0D9FF30C0E7
:1005B800E2FF2FC0E1FF1100E652E652E652E65292
:1005C800F29EB4EC0AF043C099F344C09AF3FE0ECD
:1005D80099C3E3FFFF0E9AC3E3FFFE0EE3CF4DF08E
:1005E800FF0EE3CF4EF0710E4D02F3CF4BF0F4CF78
:1005F8004CF04E02F3504C26F70E4B24D96E000EE9
:100608004C20DA6E010EDF6EFC6AFE0EE3CF4DF071
:10061800FF0EE3CF4EF0710E4D02F3CF4BF0F4CF47
:100628004CF04E02F3504C265E0E4B24D96E010E50
:100638004C20DA6EDE50DE10D8B425EF03F027EF39
:1006480003F0E4EF03F0FE0EE3CF4DF0FF0EE3CF2F
:100658004EF0710E4D02F3CF4BF0F4CF4CF04E023A
:10066800F3504C26FC0E4B24D96E000E4C20DA6E4B
:10067800DF50E06EFE0EE3CF4DF0FF0EE3CF4EF0FD
:10068800710E4D02F3CF4BF0F4CF4CF04E02F35005
:100698004C26F80E4B24D96E000E4C20DA6EDF5033
:1006A800D86EFE0EE3CF4DF0FF0EE3CF4EF0710E85
:1006B8004D02F3CF4BF0F4CF4CF04E02F3504C26E2
:1006C800FA0E4B24D96E000E4C20DA6EDF504E6EB7
:1006D8004E50FE0EE3CF4DF0FF0EE3CF4EF0710EFD
:1006E8004D02F3CF4BF0F4CF4CF04E02F3504C26B2
:1006F8005E0E4B24D96E010E4C20DA6EDECF4DF023
:10070800DDCF4EF0FC0E4DC0E3FFFD0E4EC0E3FF03
:10071800D5EF03F00500FC0EE3CF4DF0FD0EE3CF5F
:100728004EF0030E4D02F3CF4BF0F4CF4CF04E02D7
:10073800F3504C26FE0EE3CF4DF0FF0EE3CF4EF004
:10074800710E4D02F3CF49F0F4CF4AF04E02F35048
:100758004A26F30E4D6E000E4E6E080E4D26000E04
:100768004E2249504D264A504E224B504D24D96EA8
:100778004C504E20DA6EDECFFDFFDECFFEFFDDCF20
:10078800FFFFFC0EE3CF43F0010E435EFC0E43C0B7
:10079800E3FFFD0EE3CF43F0000E435AFD0E43C0C6
:1007A800E3FFFC0EE3CF43F0FD0EE3504310D8A463
:1007B800E0EF03F0E2EF03F08EEF03F003EF04F055
:1007C8000500FE0EE3CF4DF0FF0EE3CF4EF0710EA5
:1007D8004D02F3CF4BF0F4CF4CF04E02F3504C26C1
:1007E800600E4B24D96E010E4C20DA6EDECF4DF030
:1007F800DDCF4EF04DC0FDFF4EC0FEFFFF6AF28E0A
:10080800E552E552E552E5521200E652F29EFF0E1D
:10081800E36AFD0EE3CF4DF0FE0EE3CF4EF0040E7B
:100828004D24D96E000E4E20DA6E010EDB5007E122
:10083800020EDE5CD8B023EF04F025EF04F0B7EF2A
:1008480004F0E150FB0FD96EE250DA6EFF0EDA22A7
:10085800FD0EE3CF4DF0FE0EE3CF4EF0080E4D2413
:10086800E96E000E4E20EA6EEECF4DF0EDCF4EF061
:10087800D8904D344B6E4E344C6EFD0EE3CF4DF098
:10088800FE0EE3CF4EF04B504D24E96E4C504E20F7
:10089800EA6EDECFEEFFDDCFEDFFFD0EE3CF4DF0CC
:1008A800FE0EE3CF4EF0080E4D24D96E000E4E20FA
:1008B800DA6EDECF4DF0DDCF4EF0010E4D26000E84
:1008C8004E22010E4D16000E4E16FD0EE3CF4BF0D4
:1008D800FE0EE3CF4CF0080E4B24D96E000E4C20D0
:1008E800DA6E4DC0DEFF4EC0DDFFFD0EE3CF4DF0EA
:1008F800FE0EE3CF4EF0040E4D24D96E000E4E20AE
:10090800DA6EDE2A000EDD22FF0EE36AE32AFD0E10
:10091800E3CF4DF0FE0EE3CF4EF00A0E4D24D96E14
:10092800000E4E20DA6E120EDECFE6FFE82C98EFAE
:1009380004F09DEC0AF044BEA6EF04F0A4EF04F026
:10094800C7EF04F0FD0EE3500A0F4D6EFE0EE3CF25
:100958004EF0000E4E224DC0E6FF4EC0E6FFF8EC0A
:1009680006F0C7EF04F0F28EFD0EE3500A0F4D6E4D
:10097800FE0EE3CF4EF0000E4E224DC0E6FF4EC0F5
:10098800E6FF0AEC00F0FF0EE350D8B4CEEF04F017
:10099800D0EF04F00DEF04F0F28EFB0EE126FF0E0F
:1009A800E2221200E652F29EFF0EE36AFD0EE3CF4A
:1009B8004DF0FE0EE3CF4EF0040E4D24D96E000E1E
:1009C8004E20DA6EDE50DE10D8B4EDEF04F0EFEF13
:1009D80004F080EF05F0FD0EE3CF4DF0FE0EE3CFFF
:1009E8004EF0060E4D24D96E000E4E20DA6EDECF84
:1009F8004DF0DDCF4EF0D8904D344B6E4E344C6EEA
:100A0800FD0EE3CF4DF0FE0EE3CF4EF04B504D24DC
:100A1800D96E4C504E20DA6EFB0EE3CFE9FFFC0E88
:100A2800E3CFEAFFDECFEEFFDDCFEDFFFD0EE3CF34
:100A38004DF0FE0EE3CF4EF0060E4D24D96E000E9B
:100A48004E20DA6EDECF4DF0DDCF4EF0010E4D2692
:100A5800000E4E22010E4D16000E4E16FD0EE3CF6F
:100A68004BF0FE0EE3CF4CF0060E4B24D96E000E71
:100A78004C20DA6E4DC0DEFF4EC0DDFFFD0EE3CF29
:100A88004DF0FE0EE3CF4EF0040E4D24D96E000E4D
:100A98004E20DA6EDE06000EDD5AFF0EE36AE32A08
:100AA800FD0EE3CF4DF0FE0EE3CF4EF00A0E4D24BF
:100AB800D96E000E4E20DA6E120EDECFE6FFE82C5D
:100AC80061EF05F09DEC0AF044BE6FEF05F06DEFA5
:100AD80005F090EF05F0FD0EE3500A0F4D6EFE0E87
:100AE800E3CF4EF0000E4E224DC0E6FF4EC0E6FFAB
:100AF800F8EC06F090EF05F0F28EFD0EE3500A0FC9
:100B08004D6EFE0EE3CF4EF0000E4E224DC0E6FFB6
:100B18004EC0E6FF0AEC00F0FF0EE350D8B497EFA2
:100B280005F099EF05F0DAEF04F0F28EFB0EE126FE
:100B3800FF0EE2221200E652E652E652E652FE0E9E
:100B4800E36AF90EE3BEADEF05F0ABEF05F0B6EFE3
:100B580005F0F80EE36CF90EE31ED8B0E32AFE0E9A
:100B6800E36AE32AFB0EE3BEBEEF05F0BCEF05F037
:100B7800C6EF05F0FA0EE36CFB0EE31ED8B0E32ACD
:100B8800FE0EE370FC0EE36AFD0EE36AF80EE3CF97
:100B980043F0F90EE3504310D8B4D5EF05F0D7EF82
:100BA80005F043EF06F0FF0EE36AE32AEDEF05F0E8
:100BB800F80EE350D890E834436EF80E43C0E3FFD4
:100BC800F90EE350E834436EF90E43C0E3FFFF0E1D
:100BD800E32AF90EE3AEF3EF05F0F5EF05F0DCEFED
:100BE80005F0FC0EE350D890E834436EFC0E43C089
:100BF800E3FFFD0EE350E834436EFD0E43C0E3FF10
:100C0800F80EE3CF4DF0F90EE3CF4EF0FA0EE3CF36
:100C18004BF0FB0EE3CF4CF04D504B5C4E504C5814
:100C2800D8A019EF06F01BEF06F02FEF06F0FA0E2A
:100C3800E350436EF80EE350435EFA0E43C0E3FF01
:100C4800FB0EE350436EF90EE350435AFB0E43C0CC
:100C5800E3FFFC0EE380D890F90EE332F80EE3329E
:100C6800FF0EE350436E010E435EFF0E43C0E3FFE9
:100C7800D8A441EF06F043EF06F0F5EF05F0FE0EBD
:100C8800E350D8B44AEF06F04CEF06F052EF06F006
:100C9800FC0EE36CFD0EE31ED8B0E32AFC0EE3CF96
:100CA80043F0FD0EE3CF44F0F80EE126FF0EE222FA
:100CB8001200E652E652E652E652FC0E99C3E3FFF2
:100CC800FD0E9AC3E3FFFE0EE36AFF0EE36A23EE0E
:100CD8009BF0DECF4DF0DDCF4EF04DC0E6FF4EC0AD
:100CE800E6FFFA0EE350010F4D6EFB0EE3CF4EF018
:100CF800000E4E224DC0E6FF4EC0E6FF07EC08F09E
:100D0800FC0E43C0E3FFFD0E44C0E3FF23EE9BF05F
:100D1800FE0EE350DE1808E1FF0EE350DE18D8A4FB
:100D280098EF06F09AEF06F0A0EF06F0000E436E7B
:100D3800000E446EF3EF06F0FE0EE350010F436E13
:100D4800FE0E43C0E3FF436AFF0EE3504320436EA9
:100D5800FF0E43C0E3FFFC0EE3CF4DF0FD0EE3CFE3
:100D68004EF0710E4D02F3CF4BF0F4CF4CF04E0223
:100D7800F3504C26F70E4B24D96E000E4C20DA6E39
:100D8800DF50D8A4CAEF06F0CCEF06F06BEF06F000
:100D9800FC0EE3CF4DF0FD0EE3CF4EF0710E4D0289
:100DA800F3CF4BF0F4CF4CF04E02F3504C26600ECC
:100DB8004B24D96E010E4C20DA6EB40EDE1809E110
:100DC800140EDE18D8B4EBEF06F0EDEF06F06BEF7B
:100DD80006F0FC0EE3CF43F0FD0EE3CF44F0E552FE
:100DE800E552E552E5521200F29EFE0EE3CFD9FF1E
:100DF800FF0EE3CFDAFFDE2A000EDD22FE0EE3CF80
:100E0800D9FFFF0EE3CFDAFF010EDBBE17EF07F0C5
:100E1800010EDB5006E1DE04D8B015EF07F017EF3E
:100E280007F08AEF07F0FE0EE3CF4DF0FF0EE3CF99
:100E38004EF0100E4D24D96E000E4E20DA6EDECF25
:100E48004DF0DDCF4EF0D8904D344B6E4E344C6E95
:100E5800FE0EE3504B26FF0EE3504C22020E4B24AD
:100E6800D96E000E4C20DA6EDECF4DF0DDCF4EF09D
:100E7800710E4D02F3CF4BF0F4CF4CF04E02F3500D
:100E88004C26F70E4B24D96E000E4C20DA6E000E5D
:100E9800DF6E050EE66E000EE66EFC0EE3CF4DF03B
:100EA800FD0EE3CF4EF0100E4D24D96E000E4E20ED
:100EB800DA6EDECF4DF0DDCF4EF0010E4D26000E7E
:100EC8004E224DC0E6FF4EC0E6FF07EC08F0FE0ECE
:100ED800E3CF4DF0FF0EE3CF4EF0100E4D24D96E48
:100EE800000E4E20DA6E43C0DEFF44C0DDFFFE0E6A
:100EF800E3CF4DF0FF0EE3CF4EF00C0E4D24D96E2C
:100F0800000E4E20DA6EDE06000EDD5AF28EE55235
:100F1800E5521200000E286E000E276E000E2A6E93
:100F2800000E296EF5EF07F0710EE66E000EE66E04
:100F380029C0E6FF2AC0E6FF7BEC08F0F70E432441
:100F4800D96E000E4420DA6E020EDE18D8A4AFEF78
:100F580007F0B1EF07F0F3EF07F0710EE66E000E41
:100F6800E66E29C0E6FF2AC0E6FF7BEC08F0620EB9
:100F78004324D96E010E4420DA6EDE06000EDD5AD7
:100F8800710EE66E000EE66E29C0E6FF2AC0E6FF87
:100F98007BEC08F0620E4324D96E010E4420DA6E11
:100FA800DE50DE10D8A4DBEF07F0DDEF07F0F3EF3B
:100FB80007F0710EE66E000EE66E29C0E6FF2AC045
:100FC800E6FF7BEC08F0F70E4324D96E000E4420B0
:100FD800DA6E000EDF6E000E286E010E276E294AAB
:100FE8002A2A23EE9BF0DE50295CDE502A58D8A02E
:100FF80000EF08F002EF08F098EF07F027C023F0A1
:1010080028C024F01200E652FB0EE3CF43F0FC0E9A
:10101800E3504310D8B413EF08F015EF08F070EF61
:1010280008F0FF0EE36AE32A2BEF08F0FB0EE3500B
:10103800D890E834436EFB0E43C0E3FFFC0EE35048
:10104800E834436EFC0E43C0E3FFFF0EE32AFC0EB8
:10105800E3AE31EF08F033EF08F01AEF08F0FB0EBB
:10106800E3CF4DF0FC0EE3CF4EF0FD0EE3CF4BF097
:10107800FE0EE3CF4CF04D504B5C4E504C58D8A070
:1010880048EF08F04AEF08F05CEF08F0FD0EE35077
:10109800436EFB0EE350435EFD0E43C0E3FFFE0EBE
:1010A800E350436EFC0EE350435AFE0E43C0E3FF89
:1010B800D890FC0EE332FB0EE332FF0EE350436E92
:1010C800010E435EFF0E43C0E3FFD8A46EEF08F0A5
:1010D80070EF08F033EF08F0FD0EE3CF43F0FE0E9B
:1010E800E3CF44F0FB0EE126FF0EE2221200E652A7
:1010F800E652FA0EE3CF4EF0FC0EE3504E02FE0E1F
:10110800F3CFE3FFFF0EF4CFE3FFFB0EE124D96E2C
:10111800FF0EE220DA6EDF504E6EFC0EE3504E02F8
:10112800F3CFF4FFF36AE150FE0FD96EE250DA6EA6
:10113800FF0EDA22F350DE26F450DD22FA0EE3CF5A
:101148004EF0FD0EE124D96EFF0EE220DA6EDF507C
:101158004E02F3CFF4FFF36AE150FE0FD96EE2506E
:10116800DA6EFF0EDA22F350DE26F450DD22FE0E90
:10117800E3CF43F0FF0EE3CF44F0FA0EE126FF0E73
:10118800E2221200E652E652E652E652F29EC2808F
:10119800C30EC216C19AC198C150F00B0E09C16E98
:1011A800C08EC282C2B2DBEF08F0DDEF08F0D6EFE6
:1011B80008F0FE0EC3CFE3FFFF0EC4CFE3FFF28EAD
:1011C800330EE66E010EE66EFC0EE3CF4DF0FD0E1B
:1011D800E3CF4EF0960E4D02F3CF4BF0F4CF4CF028
:1011E8004E02F3504C264BC0E6FF4CC0E6FF9FEC86
:1011F80005F0FC0E43C0E3FFFD0E44C0E3FFFC0E08
:10120800E3CF43F0FD0EE3CF44F0E552E552E5525B
:10121800E5521200E652E652FE0EE124436EFF0E3E
:10122800E220446E43C0E6FF44C0E6FF070EE66EC8
:10123800000EE66ED6EC04F0FF0EE3BE33EF09F0C5
:10124800FF0EE3500AE1FE0EE3CF43F01E0E435EAD
:10125800D8B031EF09F033EF09F037EF09F0B9EC06
:101268000AF010EF09F0FF0EE3BE48EF09F0FF0E99
:10127800E3500CE1FE0EE3CF43F0230E435ED8A00B
:1012880048EF09F04AEF09F010EF09F0B7EC0AF05F
:1012980010EF09F0E552E55212003DC082F03EC061
:1012A80083F03FC084F040C085F041C0EFF042C0F9
:1012B800F0F0000E0001866F000EEE6F000EED6F6D
:1012C800000EF26F000EF16F710EE66E000EE66E04
:1012D80023EE9BF0DECF80F0DDCF81F080C0E6FF0B
:1012E80081C0E6FF7BEC08F0F30E4324E96E000EA4
:1012F8004420EA6E20EE82F0700EDBCFEBFFE806AA
:10130800FCE223EE9BF0DE2A000EDD221200000133
:1013180020EE08F08051D9268151DA22000EDE6EC7
:10132800000EDD6E00EE06F08051E9268151EA22BA
:10133800DECFEEFFDDCFEDFF20EE04F08051D926A1
:101348008151DA22EECFDEFFEDCFDDFF0A0E8025D8
:101358003D6E000E81213E6E000E406E010E3F6E06
:10136800B7EC09F01200F29E3DC0D9FF3EC0DAFF8B
:101378003FC0DEFF40C0DDFF20EE10F03D50D92613
:101388003E50DA22000EDE6E000EDD6E00EE0EF02C
:101398003D50E9263E50EA22DECFEEFFDDCFEDFFDD
:1013A80020EE0CF03D50D9263E50DA22EECFDEFF7B
:1013B800EDCFDDFFF28E120023EC0AF0000E3E6E38
:1013C800010E3D6E000E406E040E3F6E800E416EA3
:1013D800140E426E51EC09F0000E3E6E020E3D6E88
:1013E800000E406E040E3F6E1C0E416E120E426ED1
:1013F80051EC09F0A8EC0AF000EF0AF006EF00F053
:10140800760EF66E150EF76E000EF86E0900F5CF23
:1014180063F00900F5CF64F000EEF3F022EEAAF0D5
:10142800EE6ADD50D950FCE1DA50FAE100EE01F045
:10143800220EEE6AE806FDE10001E0EF09F0000E79
:10144800E8CF9BF3000EE8CF9CF3000EE8CF99F3AA
:10145800000EE8CF9AF3000E3E6E010E3D6E000EB0
:10146800406E010E3F6EB40E416E140E426E51EC8A
:1014780009F091EC0AF01200E652E652C6EC08F0C8
:10148800FE0E43C0E3FFFF0E44C0E3FFFE0EE3CFB2
:10149800E6FFE3CFE6FF070EE66E000EE66E09EC08
:1014A80004F042EF0AF0E552E5521200959683B631
:1014B80060EF0AF063EF0AF0010E64EF0AF0000E25
:1014C800FF0A4E6E4E464E464E468C504E18F70B4F
:1014D8004E188C6E00F05BEF0AF01200010E926E4F
:1014E800C30EC216C19AC198F00EC1160E0EC16E77
:1014F800C08E380EC012C280C050F80B0609C06EEC
:101508001200F28CF28AF294D596D550F80B0209A3
:10151800D56ED59A000ED66E1200070E0001806FA8
:10152800000E816F000E836F010E826F8BEC09F045
:101538001200EE0EE3CF43F0EF0EE3CF44F0EE0ED1
:10154800E126FF0EE222120085EC0AF0B1EC0AF067
:1015580072EC0AF0F28ED5501200000E956E120051
:101568005DEC06F0120083801200839012000800E0
:020000040020DA
:08000000FFFFFFFFFFFFFFFF00
:020000040030CA
:0E000000FF071B1EFF8181FF0FC00FE00F40A6
:00000001FF
