:020000040000FA
:0400000006EF00F017
:1000080089ED01F013EEBCF0D6EF09F0F29EFE0E7A
:10001800E3CFD9FFFF0EE3CFDAFFDE06000EDD5A8D
:10002800FE0EE3CFD9FFFF0EE3CFDAFF010EDBBEF2
:1000380022EF00F020EF00F085EF01F023EEB8F09A
:10004800FE0EE3CF40F0FF0EE3CF41F00E0E40244A
:10005800E96E000E4120EA6EEECF40F0EDCF41F0A0
:10006800D89040343E6E41343F6EFE0EE3503E263B
:10007800FF0EE3503F22020E3E24E96E000E3F20A1
:10008800EA6EDECFEEFFDDCFEDFF050EE66E000E69
:10009800E66EFC0EE3CF40F0FD0EE3CF41F00E0E0E
:1000A8004024D96E000E4120DA6EDECF40F0DDCF5D
:1000B80041F0010E4026000E412240C0E6FF41C03B
:1000C800E6FFD4EC07F0FE0EE3CF40F0FF0EE3CFDF
:1000D80041F00E0E4024D96E000E4120DA6E36C073
:1000E800DEFF37C0DDFFFE0EE3CF40F0FF0EE3CFAB
:1000F80041F00C0E4024D96E000E4120DA6EDE2A43
:10010800000EDD22F29E23EEB8F0DECF40F0DDCF08
:1001180041F0710E4002F3CF3EF0F4CF3FF04102C0
:10012800F3503F267D0E3E24D96E010E3F20DA6E35
:10013800DE50DE10D8B4A3EF00F0A5EF00F06BEFAF
:1001480001F0076A086A23EEB8F0DECF40F0DDCF91
:1001580041F0710E4002F3CF3EF0F4CF3FF0410280
:10016800F3503F26160E3E24D96E010E3F20DA6E5C
:10017800030EDF6E406E416A23EEB8F0DECF3EF02C
:10018800DDCF3FF0710E3E02F3CF3CF0F4CF3DF0EF
:100198003F02F3503D26190E3C24D96E010E3D2036
:1001A800DA6E40C0DEFF41C0DDFFE050406E416ABC
:1001B80023EEB8F0DECF3EF0DDCF3FF0710E3E0209
:1001C800F3CF3CF0F4CF3DF03F02F3503D261B0E39
:1001D8003C24D96E010E3D20DA6E40C0DEFF41C0DE
:1001E800DDFFD850406E416A23EEB8F0DECF3EF016
:1001F800DDCF3FF0710E3E02F3CF3CF0F4CF3DF07F
:100208003F02F3503D26170E3C24D96E010E3D20C7
:10021800DA6E40C0DEFF41C0DDFF23EEB8F0DECF6E
:1002280040F0DDCF41F0710E4002F3CF3EF0F4CF45
:100238003FF04102F3503F267D0E3E24D96E010E59
:100248003F20DA6E000EDE6E000EDD6E07C040F055
:1002580008C041F0030E4002F3CF3EF0F4CF3FF068
:100268004102F3503F2623EEB8F0DECF40F0DDCF59
:1002780041F0710E4002F3CF3CF0F4CF3DF0410263
:10028800F3503D26120E406E010E416E0B0E4026B5
:10029800000E41223C5040263D5041223E50402411
:1002A800D96E3F504120DA6EFDCFDEFFFECFDEFF74
:1002B800FFCFDEFF074A082A0600FC50D8A467EFE4
:1002C80001F069EF01F02AEF01F082EF01F023EE6F
:1002D800B8F0DECF40F0DDCF41F0710E4002F3CF31
:1002E8003EF0F4CF3FF04102F3503F26160E3E2475
:1002F800D96E010E3F20DA6E030EDF6EF28EE0EC4F
:1003080002F0F28EE552E55212000600E1CF62F0EB
:10031800E2CF63F0D9CF64F0DACF65F0F3CF66F0BF
:10032800F4CF67F036C068F037C069F03CC06AF0B7
:100338003DC06BF03EC06CF03FC06DF040C06EF049
:1003480041C06FF014EE7EF0000ED66EF294700687
:10035800D8A071065BEC07F070507110D8A4B7EF05
:1003680001F0B9EF01F0C3EF02F0000E716E080E54
:10037800706EF29E710EE66E000EE66E23EEB8F019
:10038800DECF5EF0DDCF5FF05EC0E6FF5FC0E6FF68
:1003980048EC08F07D0E3624D96E010E3720DA6E4F
:1003A800DE50DE10D8B4DBEF01F0DDEF01F0A8EF8E
:1003B80002F0000E086E000E076E710EE66E000E5B
:1003C800E66E23EEB8F0DECF5EF0DDCF5FF05EC004
:1003D800E6FF5FC0E6FF48EC08F0160E3624D96E3B
:1003E800010E3720DA6E000EDF6E5E6E5F6A710EE8
:1003F800E66E000EE66E23EEB8F0DECF60F0DDCFDD
:1004080061F060C0E6FF61C0E6FF48EC08F0190E35
:100418003624D96E010E3720DA6E5EC0DEFF5FC06B
:10042800DDFFE0505E6E5F6A710EE66E000EE66EEE
:1004380023EEB8F0DECF60F0DDCF61F060C0E6FFFC
:1004480061C0E6FF48EC08F01B0E3624D96E010E99
:100458003720DA6E5EC0DEFF5FC0DDFFD8505E6E0B
:100468005F6A710EE66E000EE66E23EEB8F0DECF20
:1004780060F0DDCF61F060C0E6FF61C0E6FF48ECE8
:1004880008F0170E3624D96E010E3720DA6E5EC0DA
:10049800DEFF5FC0DDFF710EE66E000EE66E23EE36
:1004A800B8F0DECF5EF0DDCF5FF05EC0E6FF5FC084
:1004B800E6FF48EC08F07D0E3624D96E010E372091
:1004C800DA6E000EDE6E000EDD6E710EE66E000E48
:1004D800E66E23EEB8F0DECF5EF0DDCF5FF05EC0F3
:1004E800E6FF5FC0E6FF48EC08F0120E606E010EF2
:1004F800616E0B0E6026000E612236506026375062
:100508006122030EE66E000EE66E07C0E6FF08C025
:10051800E6FF48EC08F036506024D96E3750612069
:10052800DA6EFDCFDEFFFECFDEFFFFCFDEFF074A2C
:10053800082A0600FC50D8A4A4EF02F0A6EF02F0A7
:1005480069EF02F0C0EF02F0710EE66E000EE66E83
:1005580023EEB8F0DECF5EF0DDCF5FF05EC0E6FFE1
:100568005FC0E6FF48EC08F0160E3624D96E010E7F
:100578003720DA6E000EDF6EF28EE0EC02F06FC00C
:1005880041F06EC040F06DC03FF06CC03EF06BC0F3
:100598003DF06AC03CF069C037F068C036F067C00B
:1005A800F4FF66C0F3FF65C0DAFF64C0D9FF63C01B
:1005B800E2FF62C0E1FF1100E652E652E652E6525F
:1005C800F29ED0EC0AF036C0B8F337C0B9F3FE0E8D
:1005D800B8C3E3FFFF0EB9C3E3FFFE0EE3CF40F05D
:1005E800FF0EE3CF41F0710E4002F3CF3EF0F4CF9F
:1005F8003FF04102F3503F26160E3E24D96E010EFD
:100608003F20DA6E010EDF6EFC6AFE0EE3CF40F08B
:10061800FF0EE3CF41F0710E4002F3CF3EF0F4CF6E
:100628003FF04102F3503F267D0E3E24D96E010E65
:100638003F20DA6EDE50DE10D8B425EF03F027EF46
:1006480003F0E4EF03F0FE0EE3CF40F0FF0EE3CF3C
:1006580041F0710E4002F3CF3EF0F4CF3FF041027B
:10066800F3503F261B0E3E24D96E010E3F20DA6E52
:10067800DF50E06EFE0EE3CF40F0FF0EE3CF41F017
:10068800710E4002F3CF3EF0F4CF3FF04102F35039
:100698003F26170E3E24D96E010E3F20DA6EDF503A
:1006A800D86EFE0EE3CF40F0FF0EE3CF41F0710E9F
:1006B8004002F3CF3EF0F4CF3FF04102F3503F2623
:1006C800190E3E24D96E010E3F20DA6EDF50416EBE
:1006D8004150FE0EE3CF40F0FF0EE3CF41F0710E24
:1006E8004002F3CF3EF0F4CF3FF04102F3503F26F3
:1006F8007D0E3E24D96E010E3F20DA6EDECF40F02B
:10070800DDCF41F0FC0E40C0E3FFFD0E41C0E3FF2A
:10071800D5EF03F00500FC0EE3CF40F0FD0EE3CF6C
:1007280041F0030E4002F3CF3EF0F4CF3FF0410218
:10073800F3503F26FE0EE3CF40F0FF0EE3CF41F02B
:10074800710E4002F3CF3CF0F4CF3DF04102F3507C
:100758003D26120E406E010E416E080E4026000E18
:1007680041223C5040263D5041223E504024D96E03
:100778003F504120DA6EDECFFDFFDECFFEFFDDCF3A
:10078800FFFFFC0EE3CF36F0010E365EFC0E36C0DE
:10079800E3FFFD0EE3CF36F0000E365AFD0E36C0ED
:1007A800E3FFFC0EE3CF36F0FD0EE3503610D8A47D
:1007B800E0EF03F0E2EF03F08EEF03F003EF04F055
:1007C8000500FE0EE3CF40F0FF0EE3CF41F0710EBF
:1007D8004002F3CF3EF0F4CF3FF04102F3503F2602
:1007E8007F0E3E24D96E010E3F20DA6EDECF40F038
:1007F800DDCF41F040C0FDFF41C0FEFFFF6AF28E31
:10080800E552E552E552E5521200E652E652E6524A
:10081800E652FE0EE36AF90EE3BE17EF04F015EF99
:1008280004F020EF04F0F80EE36CF90EE31ED8B0E4
:10083800E32AFE0EE36AE32AFB0EE3BE28EF04F088
:1008480026EF04F030EF04F0FA0EE36CFB0EE31E23
:10085800D8B0E32AFE0EE370FC0EE36AFD0EE36AED
:10086800F80EE3CF36F0F90EE3503610D8B43FEF68
:1008780004F041EF04F0ADEF04F0FF0EE36AE32A61
:1008880057EF04F0F80EE350D890E834366EF80EBF
:1008980036C0E3FFF90EE350E834366EF90E36C081
:1008A800E3FFFF0EE32AF90EE3AE5DEF04F05FEF1E
:1008B80004F046EF04F0FC0EE350D890E834366EAE
:1008C800FC0E36C0E3FFFD0EE350E834366EFD0E35
:1008D80036C0E3FFF80EE3CF40F0F90EE3CF41F066
:1008E800FA0EE3CF3EF0FB0EE3CF3FF040503E5C04
:1008F80041503F58D8A083EF04F085EF04F099EFFA
:1009080004F0FA0EE350366EF80EE350365EFA0E37
:1009180036C0E3FFFB0EE350366EF90EE350365A4D
:10092800FB0E36C0E3FFFC0EE380D890F90EE332ED
:10093800F80EE332FF0EE350366E010E365EFF0E00
:1009480036C0E3FFD8A4ABEF04F0ADEF04F05FEFDF
:1009580004F0FE0EE350D8B4B4EF04F0B6EF04F0A0
:10096800BCEF04F0FC0EE36CFD0EE31ED8B0E32AE6
:10097800FC0EE3CF36F0FD0EE3CF37F0F80EE1269C
:10098800FF0EE2221200E652F29EFF0EE36AFD0E0F
:10099800E3CF40F0FE0EE3CF41F0020E4024D96EC3
:1009A800000E4120DA6EDE50DE10D8A4DEEF04F02F
:1009B800E0EF04F05AEF05F0E150FB0FD96EE2507A
:1009C800DA6EFF0EDA22FD0EE3CF40F0FE0EE3CF23
:1009D80041F0060E4024E96E000E4120EA6EEECF8B
:1009E80040F0EDCF41F0D89040343E6E41343F6E38
:1009F800FD0EE3CF40F0FE0EE3CF41F03E50402421
:100A0800E96E3F504120EA6EDECFEEFFDDCFEDFF0D
:100A1800FD0EE3CF40F0FE0EE3CF41F0060E40247A
:100A2800D96E000E4120DA6E000EDE6E000EDD6E0D
:100A3800FD0EE3CF40F0FE0EE3CF41F0020E40245E
:100A4800D96E000E4120DA6EDE2A000EDD22FF0E7E
:100A5800E36AE32AFD0EE3CF40F0FE0EE3CF41F058
:100A6800080E4024D96E000E4120DA6E120EDECF39
:100A7800E6FFE82C3BEF05F0B9EC0AF037BE49EF8A
:100A880005F047EF05F06AEF05F0FD0EE350080F9B
:100A9800406EFE0EE3CF41F0000E412240C0E6FF5B
:100AA80041C0E6FFC5EC06F06AEF05F0F28EFD0ED8
:100AB800E350080F406EFE0EE3CF41F0000E4122D6
:100AC80040C0E6FF41C0E6FF0AEC00F0FF0EE3502D
:100AD800D8B471EF05F073EF05F0CBEF04F0F28EA8
:100AE800FB0EE126FF0EE2221200E652F29EFF0EF6
:100AF800E36AFD0EE3CF40F0FE0EE3CF41F0020EB5
:100B08004024D96E000E4120DA6EDE50DE10D8B4D3
:100B180090EF05F092EF05F00BEF06F0FD0EE3CF36
:100B280040F0FE0EE3CF41F0040E4024D96E000ED3
:100B38004120DA6EDECF40F0DDCF41F0D89040346E
:100B48003E6E41343F6EFD0EE3CF40F0FE0EE3CF24
:100B580041F03E504024D96E3F504120DA6EFB0EE2
:100B6800E3CFE9FFFC0EE3CFEAFFDECFEEFFDDCFF8
:100B7800EDFFFD0EE3CF40F0FE0EE3CF41F0040E93
:100B88004024D96E000E4120DA6E000EDE6E000E93
:100B9800DD6EFD0EE3CF40F0FE0EE3CF41F0020E16
:100BA8004024D96E000E4120DA6EDE06000EDD5AB2
:100BB800FF0EE36AE32AFD0EE3CF40F0FE0EE3CF1B
:100BC80041F0080E4024D96E000E4120DA6E120E54
:100BD800DECFE6FFE82CECEF05F0B9EC0AF037BE03
:100BE800FAEF05F0F8EF05F01BEF06F0FD0EE35005
:100BF800080F406EFE0EE3CF41F0000E412240C0C8
:100C0800E6FF41C0E6FFC5EC06F01BEF06F0F28EEA
:100C1800FD0EE350080F406EFE0EE3CF41F0000ECC
:100C2800412240C0E6FF41C0E6FF0AEC00F0FF0E9B
:100C3800E350D8B422EF06F024EF06F07DEF05F07C
:100C4800F28EFB0EE126FF0EE2221200E652E65279
:100C5800E652E652FC0EB8C3E3FFFD0EB9C3E3FF4C
:100C6800FE0EE36AFF0EE36A23EEBAF0DECF40F031
:100C7800DDCF41F040C0E6FF41C0E6FFFA0EE35089
:100C8800010F406EFB0EE3CF41F0000E412240C041
:100C9800E6FF41C0E6FFD4EC07F0FC0E36C0E3FFE8
:100CA800FD0E37C0E3FF23EEBAF0FE0EE350DE1868
:100CB80008E1FF0EE350DE18D8A465EF06F067EFF1
:100CC80006F06DEF06F0000E366E000E376EC0EFC0
:100CD80006F0FE0EE350010F366EFE0E36C0E3FF3F
:100CE800366AFF0EE3503620366EFF0E36C0E3FF3D
:100CF800FC0EE3CF40F0FD0EE3CF41F0710E400251
:100D0800F3CF3EF0F4CF3FF04102F3503F26160EEA
:100D18003E24D96E010E3F20DA6EDF50D8A497EF3B
:100D280006F099EF06F038EF06F0FC0EE3CF40F03E
:100D3800FD0EE3CF41F0710E4002F3CF3EF0F4CF49
:100D48003FF04102F3503F267F0E3E24D96E010E3C
:100D58003F20DA6EDE0EDE1809E1140EDE18D8B474
:100D6800B8EF06F0BAEF06F038EF06F0FC0EE3CF66
:100D780036F0FD0EE3CF37F0E552E552E552E55285
:100D88001200F29EFE0EE3CFD9FFFF0EE3CFDAFF8B
:100D9800DE2A000EDD22FE0EE3CFD9FFFF0EE3CFE1
:100DA800DAFF010EDBBEE4EF06F0010EDB5006E1D0
:100DB800DE04D8B0E2EF06F0E4EF06F057EF07F0F4
:100DC800FE0EE3CF40F0FF0EE3CF41F0100E4024BB
:100DD800D96E000E4120DA6EDECF40F0DDCF41F053
:100DE800D89040343E6E41343F6EFE0EE3503E26AE
:100DF800FF0EE3503F22020E3E24D96E000E3F2024
:100E0800DA6EDECF40F0DDCF41F0710E4002F3CF55
:100E18003EF0F4CF3FF04102F3503F26160E3E2439
:100E2800D96E010E3F20DA6E000EDF6E050EE66EFB
:100E3800000EE66EFC0EE3CF40F0FD0EE3CF41F06E
:100E4800100E4024D96E000E4120DA6EDECF40F03D
:100E5800DDCF41F0010E4026000E412240C0E6FFE2
:100E680041C0E6FFD4EC07F0FE0EE3CF40F0FF0EE2
:100E7800E3CF41F0100E4024D96E000E4120DA6E07
:100E880036C0DEFF37C0DDFFFE0EE3CF40F0FF0EB9
:100E9800E3CF41F00C0E4024D96E000E4120DA6EEB
:100EA800DE06000EDD5AF28EE552E5521200000E03
:100EB8005B6E000E5A6E000E5D6E000E5C6EC2EF29
:100EC80007F0710EE66E000EE66E5CC0E6FF5DC0D0
:100ED800E6FF48EC08F0160E3624D96E010E3720CE
:100EE800DA6E020EDE18D8A47CEF07F07EEF07F06A
:100EF800C0EF07F0710EE66E000EE66E5CC0E6FF0E
:100F08005DC0E6FF48EC08F0810E3624D96E010E6C
:100F18003720DA6EDE06000EDD5A710EE66E000E20
:100F2800E66E5CC0E6FF5DC0E6FF48EC08F0810EA7
:100F38003624D96E010E3720DA6EDE50DE10D8A4C2
:100F4800A8EF07F0AAEF07F0C0EF07F0710EE66E02
:100F5800000EE66E5CC0E6FF5DC0E6FF48EC08F0F8
:100F6800160E3624D96E010E3720DA6E000EDF6EAB
:100F7800000E5B6E010E5A6E5C4A5D2A23EEBAF0D3
:100F8800DE505C5CDE505D58D8A0CDEF07F0CFEFA7
:100F980007F065EF07F05AC056F05BC057F0120033
:100FA800E652FB0EE3CF36F0FC0EE3503610D8B411
:100FB800E0EF07F0E2EF07F03DEF08F0FF0EE36A1D
:100FC800E32AF8EF07F0FB0EE350D890E834366ECA
:100FD800FB0E36C0E3FFFC0EE350E834366EFC0E21
:100FE80036C0E3FFFF0EE32AFC0EE3AEFEEF07F088
:100FF80000EF08F0E7EF07F0FB0EE3CF40F0FC0E40
:10100800E3CF41F0FD0EE3CF3EF0FE0EE3CF3FF01D
:1010180040503E5C41503F58D8A015EF08F017EFFC
:1010280008F029EF08F0FD0EE350366EFB0EE35092
:10103800365EFD0E36C0E3FFFE0EE350366EFC0E44
:10104800E350365AFE0E36C0E3FFD890FC0EE3326A
:10105800FB0EE332FF0EE350366E010E365EFF0ED6
:1010680036C0E3FFD8A43BEF08F03DEF08F000EFEF
:1010780008F0FD0EE3CF36F0FE0EE3CF37F0FB0E9F
:10108800E126FF0EE2221200E652E652FA0EE3CF04
:1010980041F0FC0EE3504102FE0EF3CFE3FFFF0EDA
:1010A800F4CFE3FFFB0EE124D96EFF0EE220DA6EE7
:1010B800DF50416EFC0EE3504102F3CFF4FFF36AB8
:1010C800E150FE0FD96EE250DA6EFF0EDA22F350CD
:1010D800DE26F450DD22FA0EE3CF41F0FD0EE124C6
:1010E800D96EFF0EE220DA6EDF504102F3CFF4FF33
:1010F800F36AE150FE0FD96EE250DA6EFF0EDA2283
:10110800F350DE26F450DD22FE0EE3CF36F0FF0E5C
:10111800E3CF37F0FA0EE126FF0EE2221200E65284
:10112800E652E652E652F29EC280C30EC216C19A39
:10113800C198C150F00B0E09C16EC08EC282C2B2F6
:10114800A8EF08F0AAEF08F0A3EF08F0FE0EC3CF4F
:10115800E3FFFF0EC4CFE3FFF28E330EE66E010EFF
:10116800E66EFC0EE3CF40F0FD0EE3CF41F0960EA5
:101178004002F3CF3EF0F4CF3FF04102F3503F2658
:101188003EC0E6FF3FC0E6FF09EC04F0FC0E36C0A7
:10119800E3FFFD0E37C0E3FFFC0EE3CF36F0FD0E94
:1011A800E3CF37F0E552E552E552E5521200E65238
:1011B800E652FE0EE124366EFF0EE220376E36C090
:1011C800E6FF37C0E6FF0A0EE66E000EE66E79EC23
:1011D80005F0FF0EE3BE00EF09F0FF0EE3500AE151
:1011E800FE0EE3CF36F01E0E365ED8B0FEEF08F0E6
:1011F80000EF09F004EF09F0D5EC0AF0DDEF08F094
:10120800FF0EE3BE15EF09F0FF0EE3500CE1FE0EF2
:10121800E3CF36F0230E365ED8A015EF09F017EFAE
:1012280009F0DDEF08F0D3EC0AF0DDEF08F0E55245
:10123800E552120080C088F081C089F082C0F3F0C6
:1012480083C0F4F0000E00018A6F000EF26F000EEA
:10125800F16F000EF66F000EF56F710EE66E000E60
:10126800E66E23EEBAF0DECF84F0DDCF85F084C0E1
:10127800E6FF85C0E6FF48EC08F0120E3624E96E5A
:10128800010E3720EA6E20EE86F0700EDBCFEBFF02
:10129800E806FCE223EEBAF0DE2A000EDD22120098
:1012A800000120EE06F08451D9268551DA22000E7D
:1012B800DE6E000EDD6E00EE04F08451E9268551E5
:1012C800EA22DECFEEFFDDCFEDFF20EE02F0845103
:1012D800D9268551DA22EECFDEFFEDCFDDFF080EED
:1012E8008425806F000E8521816F000E836F010EAB
:1012F800826FACEC09F012000904D8A486EF09F05B
:1013080088EF09F080EF09F002BE94EF09F002506F
:1013180009E1220E015CD8A094EF09F096EF09F0DC
:1013280098EF09F0D3EC0AF002BEA6EF09F00250DC
:1013380007E11F0E015CD8B0A4EF09F0A6EF09F091
:10134800A8EF09F0D5EC0AF0096A80EF09F012005D
:10135800F29E80C0D9FF81C0DAFF82C0DEFF83C061
:10136800DDFF000120EE10F08051D9268151DA22EC
:10137800000EDE6E000EDD6E00EE0EF08051E926E6
:101388008151EA22DECFEEFFDDCFEDFF20EE0CF03B
:101398008051D9268151DA22EECFDEFFEDCFDDFF75
:1013A800F28E1200AE0EF66E150EF76E000EF86E87
:1013B8000900F5CF70F00900F5CF71F001EE12F0D9
:1013C80022EEAAF0EE6ADD50D950FCE1DA50FAE1DB
:1013D80001EE00F0120EEE6AE806FDE100EE01F003
:1013E800350EEE6AE806FDE100011DEF0AF00A0E6F
:1013F8000001846F000E856F000E876F010E866FE7
:1014080054EC09F0240E0001806F000E816F000E6D
:10141800836F010E826FACEC09F0000E0001806F43
:10142800010E816F000E836F000E826FACEC09F025
:1014380012003BEC0AF0000E0001816F020E806F73
:10144800340E826F150E836F1EEC09F0000E00013A
:10145800816F030E806F000E826F130E836F1EEC78
:1014680009F0C4EC0AF037EF0AF006EF00F0000EBE
:10147800E8CFBAF3000EE8CFBBF3000EE8CFB8F31D
:10148800000EE8CFB9F3000E0001816F010E806FE6
:10149800DE0E826F140E836F1EEC09F0FBEC09F070
:1014A8001200E652E65293EC08F0FE0E36C0E3FF57
:1014B800FF0E37C0E3FFFE0EE3CFE6FFE3CFE6FF04
:1014C8000A0EE66E000EE66EC7EC04F057EF0AF05F
:1014D800E552E5521200959683B675EF0AF078EF5B
:1014E8000AF0010E79EF0AF0000EFF0A416E41463C
:1014F800414641468C504118F70B41188C6E00F05C
:1015080070EF0AF01200010E926EC30EC216C19A55
:10151800C198F00EC1160E0EC16EC08E380EC012E4
:10152800C280C050F80B0609C06E12000950D8A43A
:10153800A0EF0AF0A2EF0AF09AEF0AF093EC08F095
:1015480036C001F037C002F0010E096E9AEF0AF0BA
:101558001200F28CF28AF294D596D550F80B020953
:10156800D56ED59A000ED66E1200EE0EE3CF36F089
:10157800EF0EE3CF37F0EE0EE126FF0EE222120067
:10158800ADEC0AF0CDEC0AF087EC0AF0F28ED550FB
:101598001200000E956E12002AEC06F012008380ED
:0815A8001200839012000800FC
:020000040020DA
:08000000FFFFFFFFFFFFFFFF00
:020000040030CA
:0E000000FF071B1EFF8181FF0FC00FE00F40A6
:00000001FF
