:020000040000FA
:0400000006EF00F017
:1000080089ED01F012EEB9F0D4EF09F0F29EFE0E80
:10001800E3CFD9FFFF0EE3CFDAFFDE06000EDD5A8D
:10002800FE0EE3CFD9FFFF0EE3CFDAFF010EDBBEF2
:1000380022EF00F020EF00F085EF01F022EEB5F09E
:10004800FE0EE3CF2BF0FF0EE3CF2CF00A0E2B248D
:10005800E96E000E2C20EA6EEECF2BF0EDCF2CF0DF
:10006800D8902B34296E2C342A6EFE0EE3502926A4
:10007800FF0EE3502A22020E2924E96E000E2A20E0
:10008800EA6EDECFEEFFDDCFEDFF030EE66E000E6B
:10009800E66EFC0EE3CF2BF0FD0EE3CF2CF00A0E3C
:1000A8002B24D96E000E2C20DA6EDECF2BF0DDCF9C
:1000B8002CF0010E2B26000E2C222BC0E6FF2CC0A4
:1000C800E6FFD4EC07F0FE0EE3CF2BF0FF0EE3CFF4
:1000D8002CF00A0E2B24D96E000E2C20DA6E21C0CB
:1000E800DEFF22C0DDFFFE0EE3CF2BF0FF0EE3CFD5
:1000F8002CF0080E2B24D96E000E2C20DA6EDE2A86
:10010800000EDD22F29E22EEB5F0DECF2BF0DDCF21
:100118002CF0710E2B02F3CF29F0F4CF2AF02C0229
:10012800F3502A265C0E2924D96E010E2A20DA6E95
:10013800DE50DE10D8B4A3EF00F0A5EF00F06BEFAF
:1001480001F0436A446A22EEB5F0DECF2BF0DDCF32
:100158002CF0710E2B02F3CF29F0F4CF2AF02C02E9
:10016800F3502A26F50E2924D96E000E2A20DA6EBD
:10017800030EDF6E2B6E2C6A22EEB5F0DECF29F06F
:10018800DDCF2AF0710E2902F3CF27F0F4CF28F043
:100198002A02F3502826F80E2724D96E000E2820AC
:1001A800DA6E2BC0DEFF2CC0DDFFE0502B6E2C6A10
:1001B80022EEB5F0DECF29F0DDCF2AF0710E29024C
:1001C800F3CF27F0F4CF28F02A02F3502826FA0EAE
:1001D8002724D96E000E2820DA6E2BC0DEFF2CC033
:1001E800DDFFD8502B6E2C6A22EEB5F0DECF29F059
:1001F800DDCF2AF0710E2902F3CF27F0F4CF28F0D3
:100208002A02F3502826F60E2724D96E000E28203D
:10021800DA6E2BC0DEFF2CC0DDFF22EEB5F0DECF9C
:100228002BF0DDCF2CF0710E2B02F3CF29F0F4CF99
:100238002AF02C02F3502A265C0E2924D96E010ECE
:100248002A20DA6E000EDE6E000EDD6E43C02BF043
:1002580044C02CF0030E2B02F3CF29F0F4CF2AF080
:100268002C02F3502A2622EEB5F0DECF2BF0DDCF9C
:100278002CF0710E2B02F3CF27F0F4CF28F02C02CC
:10028800F3502826F10E2B6E000E2C6E0B0E2B262B
:10029800000E2C2227502B2628502C2229502B24A4
:1002A800D96E2A502C20DA6EFDCFDEFFFECFDEFF9E
:1002B800FFCFDEFF434A442A0600FC50D8A467EF6C
:1002C80001F069EF01F02AEF01F082EF01F022EE70
:1002D800B5F0DECF2BF0DDCF2CF0710E2B02F3CF73
:1002E80029F0F4CF2AF02C02F3502A26F50E2924FF
:1002F800D96E000E2A20DA6E030EDF6EF28EE0EC65
:1003080002F0F28EE552E55212000600E1CF0DF040
:10031800E2CF0EF0D9CF0FF0DACF10F0F3CF11F013
:10032800F4CF12F021C013F022C014F027C015F04A
:1003380028C016F029C017F02AC018F02BC019F0F1
:100348002CC01AF013EED2F0000ED66EF2945C06B2
:10035800D8A05D065BEC07F05C505D10D8A4B7EF41
:1003680001F0B9EF01F0C3EF02F0000E5D6E080E68
:100378005C6EF29E710EE66E000EE66E22EEB5F031
:10038800DECF09F0DDCF0AF009C0E6FF0AC0E6FFBC
:1003980048EC08F05C0E2124D96E010E2220DA6E9A
:1003A800DE50DE10D8B4DBEF01F0DDEF01F0A8EF8E
:1003B80002F0000E446E000E436E710EE66E000EE3
:1003C800E66E22EEB5F0DECF09F0DDCF0AF009C007
:1003D800E6FF0AC0E6FF48EC08F0F50E2124D96EC6
:1003E800000E2220DA6E000EDF6E096E0A6A710EA8
:1003F800E66E000EE66E22EEB5F0DECF0BF0DDCF36
:100408000CF00BC0E6FF0CC0E6FF48EC08F0F80E55
:100418002124D96E000E2220DA6E09C0DEFF0AC040
:10042800DDFFE050096E0A6A710EE66E000EE66E98
:1004380022EEB5F0DECF0BF0DDCF0CF00BC0E6FFFF
:100448000CC0E6FF48EC08F0FA0E2124D96E000E25
:100458002220DA6E09C0DEFF0AC0DDFFD850096E1F
:100468000A6A710EE66E000EE66E22EEB5F0DECF79
:100478000BF0DDCF0CF00BC0E6FF0CC0E6FF48EC3C
:1004880008F0F60E2124D96E000E2220DA6E09C07B
:10049800DEFF0AC0DDFF710EE66E000EE66E22EE8C
:1004A800B5F0DECF09F0DDCF0AF009C0E6FF0AC0DB
:1004B800E6FF48EC08F05C0E2124D96E010E2220DC
:1004C800DA6E000EDE6E000EDD6E710EE66E000E48
:1004D800E66E22EEB5F0DECF09F0DDCF0AF009C0F6
:1004E800E6FF0AC0E6FF48EC08F0F10E0B6E000EBE
:1004F8000C6E0B0E0B26000E0C2221500B262250E0
:100508000C22030EE66E000EE66E43C0E6FF44C002
:10051800E6FF48EC08F021500B24D96E22500C203D
:10052800DA6EFDCFDEFFFECFDEFFFFCFDEFF434AF0
:10053800442A0600FC50D8A4A4EF02F0A6EF02F06B
:1005480069EF02F0C0EF02F0710EE66E000EE66E83
:1005580022EEB5F0DECF09F0DDCF0AF009C0E6FFE4
:100568000AC0E6FF48EC08F0F50E2124D96E000E0B
:100578002220DA6E000EDF6EF28EE0EC02F01AC076
:100588002CF019C02BF018C02AF017C029F016C09B
:1005980028F015C027F014C022F013C021F012C0B3
:1005A800F4FF11C0F3FF10C0DAFF0FC0D9FF0EC06F
:1005B800E2FF0DC0E1FF1100E652E652E652E652B4
:1005C800F29E93EC0AF021C0B5F222C0B6F2FE0EFC
:1005D800B5C2E3FFFF0EB6C2E3FFFE0EE3CF2BF07A
:1005E800FF0EE3CF2CF0710E2B02F3CF29F0F4CFDE
:1005F8002AF02C02F3502A26F50E2924D96E000E73
:100608002A20DA6E010EDF6EFC6AFE0EE3CF2BF0B5
:10061800FF0EE3CF2CF0710E2B02F3CF29F0F4CFAD
:100628002AF02C02F3502A265C0E2924D96E010EDA
:100638002A20DA6EDE50DE10D8B425EF03F027EF5B
:1006480003F0E4EF03F0FE0EE3CF2BF0FF0EE3CF51
:100658002CF0710E2B02F3CF29F0F4CF2AF02C02E4
:10066800F3502A26FA0E2924D96E000E2A20DA6EB3
:10067800DF50E06EFE0EE3CF2BF0FF0EE3CF2CF041
:10068800710E2B02F3CF29F0F4CF2AF02C02F3508D
:100698002A26F60E2924D96E000E2A20DA6EDF509B
:1006A800D86EFE0EE3CF2BF0FF0EE3CF2CF0710EC9
:1006B8002B02F3CF29F0F4CF2AF02C02F3502A268C
:1006C800F80E2924D96E000E2A20DA6EDF502C6E1F
:1006D8002C50FE0EE3CF2BF0FF0EE3CF2CF0710E63
:1006E8002B02F3CF29F0F4CF2AF02C02F3502A265C
:1006F8005C0E2924D96E010E2A20DA6EDECF2BF08B
:10070800DDCF2CF0FC0E2BC0E3FFFD0E2CC0E3FF69
:10071800D5EF03F00500FC0EE3CF2BF0FD0EE3CF81
:100728002CF0030E2B02F3CF29F0F4CF2AF02C0281
:10073800F3502A26FE0EE3CF2BF0FF0EE3CF2CF06A
:10074800710E2B02F3CF27F0F4CF28F02C02F350D0
:100758002826F10E2B6E000E2C6E080E2B26000E8E
:100768002C2227502B2628502C2229502B24D96E96
:100778002A502C20DA6EDECFFDFFDECFFEFFDDCF64
:10078800FFFFFC0EE3CF21F0010E215EFC0E21C01D
:10079800E3FFFD0EE3CF21F0000E215AFD0E21C02C
:1007A800E3FFFC0EE3CF21F0FD0EE3502110D8A4A7
:1007B800E0EF03F0E2EF03F08EEF03F003EF04F055
:1007C8000500FE0EE3CF2BF0FF0EE3CF2CF0710EE9
:1007D8002B02F3CF29F0F4CF2AF02C02F3502A266B
:1007E8005E0E2924D96E010E2A20DA6EDECF2BF098
:1007F800DDCF2CF02BC0FDFF2CC0FEFFFF6AF28E70
:10080800E552E552E552E5521200E652E652E6524A
:10081800E652FE0EE36AF90EE3BE17EF04F015EF99
:1008280004F020EF04F0F80EE36CF90EE31ED8B0E4
:10083800E32AFE0EE36AE32AFB0EE3BE28EF04F088
:1008480026EF04F030EF04F0FA0EE36CFB0EE31E23
:10085800D8B0E32AFE0EE370FC0EE36AFD0EE36AED
:10086800F80EE3CF21F0F90EE3502110D8B43FEF92
:1008780004F041EF04F0ADEF04F0FF0EE36AE32A61
:1008880057EF04F0F80EE350D890E834216EF80ED4
:1008980021C0E3FFF90EE350E834216EF90E21C0C0
:1008A800E3FFFF0EE32AF90EE3AE5DEF04F05FEF1E
:1008B80004F046EF04F0FC0EE350D890E834216EC3
:1008C800FC0E21C0E3FFFD0EE350E834216EFD0E5F
:1008D80021C0E3FFF80EE3CF2BF0F90EE3CF2CF0A5
:1008E800FA0EE3CF29F0FB0EE3CF2AF02B50295C58
:1008F8002C502A58D8A083EF04F085EF04F099EF24
:1009080004F0FA0EE350216EF80EE350215EFA0E61
:1009180021C0E3FFFB0EE350216EF90EE350215A8C
:10092800FB0E21C0E3FFFC0EE380D890F90EE33202
:10093800F80EE332FF0EE350216E010E215EFF0E2A
:1009480021C0E3FFD8A4ABEF04F0ADEF04F05FEFF4
:1009580004F0FE0EE350D8B4B4EF04F0B6EF04F0A0
:10096800BCEF04F0FC0EE36CFD0EE31ED8B0E32AE6
:10097800FC0EE3CF21F0FD0EE3CF22F0F80EE126C6
:10098800FF0EE2221200E652F29EFF0EE36AFD0E0F
:10099800E3CF2BF0FE0EE3CF2CF0020E2B24D96E02
:1009A800000E2C20DA6EDE50DE10D8A4DEEF04F044
:1009B800E0EF04F05AEF05F0E150FB0FD96EE2507A
:1009C800DA6EFF0EDA22FD0EE3CF2BF0FE0EE3CF38
:1009D8002CF0060E2B24E96E000E2C20EA6EEECFCA
:1009E8002BF0EDCF2CF0D8902B34296E2C342A6EB6
:1009F800FD0EE3CF2BF0FE0EE3CF2CF029502B2475
:100A0800E96E2A502C20EA6EDECFEEFFDDCFEDFF37
:100A1800FD0EE3CF2BF0FE0EE3CF2CF0060E2B24B9
:100A2800D96E000E2C20DA6E000EDE6E000EDD6E22
:100A3800FD0EE3CF2BF0FE0EE3CF2CF0020E2B249D
:100A4800D96E000E2C20DA6EDE2A000EDD22FF0E93
:100A5800E36AE32AFD0EE3CF2BF0FE0EE3CF2CF082
:100A6800080E2B24D96E000E2C20DA6E0E0EDECF67
:100A7800E6FFE82C3BEF05F079EC0AF022BE49EFDF
:100A880005F047EF05F06AEF05F0FD0EE350080F9B
:100A98002B6EFE0EE3CF2CF0000E2C222BC0E6FFAF
:100AA8002CC0E6FFC5EC06F06AEF05F0F28EFD0EED
:100AB800E350080F2B6EFE0EE3CF2CF0000E2C2215
:100AC8002BC0E6FF2CC0E6FF0AEC00F0FF0EE35057
:100AD800D8B471EF05F073EF05F0CBEF04F0F28EA8
:100AE800FB0EE126FF0EE2221200E652F29EFF0EF6
:100AF800E36AFD0EE3CF2BF0FE0EE3CF2CF0020EDF
:100B08002B24D96E000E2C20DA6EDE50DE10D8B4FD
:100B180090EF05F092EF05F00BEF06F0FD0EE3CF36
:100B28002BF0FE0EE3CF2CF0040E2B24D96E000E12
:100B38002C20DA6EDECF2BF0DDCF2CF0D8902B34C2
:100B4800296E2C342A6EFD0EE3CF2BF0FE0EE3CF78
:100B58002CF029502B24D96E2A502C20DA6EFB0E4B
:100B6800E3CFE9FFFC0EE3CFEAFFDECFEEFFDDCFF8
:100B7800EDFFFD0EE3CF2BF0FE0EE3CF2CF0040EBD
:100B88002B24D96E000E2C20DA6E000EDE6E000EBD
:100B9800DD6EFD0EE3CF2BF0FE0EE3CF2CF0020E40
:100BA8002B24D96E000E2C20DA6EDE06000EDD5ADC
:100BB800FF0EE36AE32AFD0EE3CF2BF0FE0EE3CF30
:100BC8002CF0080E2B24D96E000E2C20DA6E0E0E97
:100BD800DECFE6FFE82CECEF05F079EC0AF022BE58
:100BE800FAEF05F0F8EF05F01BEF06F0FD0EE35005
:100BF800080F2B6EFE0EE3CF2CF0000E2C222BC01C
:100C0800E6FF2CC0E6FFC5EC06F01BEF06F0F28EFF
:100C1800FD0EE350080F2B6EFE0EE3CF2CF0000EF6
:100C28002C222BC0E6FF2CC0E6FF0AEC00F0FF0EDA
:100C3800E350D8B422EF06F024EF06F07DEF05F07C
:100C4800F28EFB0EE126FF0EE2221200E652E65279
:100C5800E652E652FC0EB5C2E3FFFD0EB6C2E3FF54
:100C6800FE0EE36AFF0EE36A22EEB7F0DECF2BF04A
:100C7800DDCF2CF02BC0E6FF2CC0E6FFFA0EE350C8
:100C8800010F2B6EFB0EE3CF2CF0000E2C222BC095
:100C9800E6FF2CC0E6FFD4EC07F0FC0E21C0E3FF12
:100CA800FD0E22C0E3FF22EEB7F0FE0EE350DE1881
:100CB80008E1FF0EE350DE18D8A465EF06F067EFF1
:100CC80006F06DEF06F0000E216E000E226EC0EFEA
:100CD80006F0FE0EE350010F216EFE0E21C0E3FF69
:100CE800216AFF0EE3502120216EFF0E21C0E3FF91
:100CF800FC0EE3CF2BF0FD0EE3CF2CF0710E2B0290
:100D0800F3CF29F0F4CF2AF02C02F3502A26F50E5F
:100D18002924D96E000E2A20DA6EDF50D8A497EF66
:100D280006F099EF06F038EF06F0FC0EE3CF2BF053
:100D3800FD0EE3CF2CF0710E2B02F3CF29F0F4CF88
:100D48002AF02C02F3502A265E0E2924D96E010EB1
:100D58002A20DA6E840EDE1809E1140EDE18D8B4E3
:100D6800B8EF06F0BAEF06F038EF06F0FC0EE3CF66
:100D780021F0FD0EE3CF22F0E552E552E552E552AF
:100D88001200F29EFE0EE3CFD9FFFF0EE3CFDAFF8B
:100D9800DE2A000EDD22FE0EE3CFD9FFFF0EE3CFE1
:100DA800DAFF010EDBBEE4EF06F0010EDB5006E1D0
:100DB800DE04D8B0E2EF06F0E4EF06F057EF07F0F4
:100DC800FE0EE3CF2BF0FF0EE3CF2CF00C0E2B24FE
:100DD800D96E000E2C20DA6EDECF2BF0DDCF2CF092
:100DE800D8902B34296E2C342A6EFE0EE350292617
:100DF800FF0EE3502A22020E2924D96E000E2A2063
:100E0800DA6EDECF2BF0DDCF2CF0710E2B02F3CF94
:100E180029F0F4CF2AF02C02F3502A26F50E2924C3
:100E2800D96E000E2A20DA6E000EDF6E030EE66E13
:100E3800000EE66EFC0EE3CF2BF0FD0EE3CF2CF098
:100E48000C0E2B24D96E000E2C20DA6EDECF2BF080
:100E5800DDCF2CF0010E2B26000E2C222BC0E6FF36
:100E68002CC0E6FFD4EC07F0FE0EE3CF2BF0FF0E0C
:100E7800E3CF2CF00C0E2B24D96E000E2C20DA6E4A
:100E880021C0DEFF22C0DDFFFE0EE3CF2BF0FF0EF8
:100E9800E3CF2CF0080E2B24D96E000E2C20DA6E2E
:100EA800DE06000EDD5AF28EE552E5521200000E03
:100EB800066E000E056E000E086E000E076EC2EF7D
:100EC80007F0710EE66E000EE66E07C0E6FF08C07A
:100ED800E6FF48EC08F0F50E2124D96E000E22201A
:100EE800DA6E020EDE18D8A47CEF07F07EEF07F06A
:100EF800C0EF07F0710EE66E000EE66E07C0E6FF63
:100F080008C0E6FF48EC08F0600E2124D96E010EF7
:100F18002220DA6EDE06000EDD5A710EE66E000E35
:100F2800E66E07C0E6FF08C0E6FF48EC08F0600E72
:100F38002124D96E010E2220DA6EDE50DE10D8A4EC
:100F4800A8EF07F0AAEF07F0C0EF07F0710EE66E02
:100F5800000EE66E07C0E6FF08C0E6FF48EC08F0A2
:100F6800F50E2124D96E000E2220DA6E000EDF6EF7
:100F7800000E066E010E056E074A082A22EEB7F02B
:100F8800DE50075CDE500858D8A0CDEF07F0CFEF51
:100F980007F065EF07F005C001F006C002F0120087
:100FA800E652FB0EE3CF21F0FC0EE3502110D8B43B
:100FB800E0EF07F0E2EF07F03DEF08F0FF0EE36A1D
:100FC800E32AF8EF07F0FB0EE350D890E834216EDF
:100FD800FB0E21C0E3FFFC0EE350E834216EFC0E4B
:100FE80021C0E3FFFF0EE32AFC0EE3AEFEEF07F09D
:100FF80000EF08F0E7EF07F0FB0EE3CF2BF0FC0E55
:10100800E3CF2CF0FD0EE3CF29F0FE0EE3CF2AF05C
:101018002B50295C2C502A58D8A015EF08F017EF50
:1010280008F029EF08F0FD0EE350216EFB0EE350A7
:10103800215EFD0E21C0E3FFFE0EE350216EFC0E83
:10104800E350215AFE0E21C0E3FFD890FC0EE33294
:10105800FB0EE332FF0EE350216E010E215EFF0E00
:1010680021C0E3FFD8A43BEF08F03DEF08F000EF04
:1010780008F0FD0EE3CF21F0FE0EE3CF22F0FB0EC9
:10108800E126FF0EE2221200E652E652FA0EE3CF04
:101098002CF0FC0EE3502C02FE0EF3CFE3FFFF0E04
:1010A800F4CFE3FFFB0EE124D96EFF0EE220DA6EE7
:1010B800DF502C6EFC0EE3502C02F3CFF4FFF36AE2
:1010C800E150FE0FD96EE250DA6EFF0EDA22F350CD
:1010D800DE26F450DD22FA0EE3CF2CF0FD0EE124DB
:1010E800D96EFF0EE220DA6EDF502C02F3CFF4FF48
:1010F800F36AE150FE0FD96EE250DA6EFF0EDA2283
:10110800F350DE26F450DD22FE0EE3CF21F0FF0E71
:10111800E3CF22F0FA0EE126FF0EE2221200E65299
:10112800E652E652E652F29EC280C30EC216C19A39
:10113800C198C150F00B0E09C16EC08EC282C2B2F6
:10114800A8EF08F0AAEF08F0A3EF08F0FE0EC3CF4F
:10115800E3FFFF0EC4CFE3FFF28E330EE66E010EFF
:10116800E66EFC0EE3CF2BF0FD0EE3CF2CF0960ECF
:101178002B02F3CF29F0F4CF2AF02C02F3502A26C1
:1011880029C0E6FF2AC0E6FF09EC04F0FC0E21C0E6
:10119800E3FFFD0E22C0E3FFFC0EE3CF21F0FD0EBE
:1011A800E3CF22F0E552E552E552E5521200E6524D
:1011B800E652FE0EE124216EFF0EE220226E21C0CF
:1011C800E6FF22C0E6FF460EE66E000EE66E79ECFC
:1011D80005F0FF0EE3BE00EF09F0FF0EE3500AE151
:1011E800FE0EE3CF21F01E0E215ED8B0FEEF08F010
:1011F80000EF09F004EF09F098EC0AF0DDEF08F0D1
:10120800FF0EE3BE15EF09F0FF0EE3500CE1FE0EF2
:10121800E3CF21F0230E215ED8A015EF09F017EFD8
:1012280009F0DDEF08F096EC0AF0DDEF08F0E55282
:10123800E55212001BC082F01CC083F01DC0EDF007
:101248001EC0EEF0000E0001846F000EEC6F000E61
:10125800EB6F000EF06F000EEF6F710EE66E000E72
:10126800E66E22EEB7F0DECF1FF0DDCF20F01FC014
:10127800E6FF20C0E6FF48EC08F0F10E2124E96EF5
:10128800000E2220EA6E20EE80F0700EDBCFEBFF1E
:10129800E806FCE222EEB7F0DE2A000EDD2212009C
:1012A8004504D8A45AEF09F05CEF09F054EF09F0AF
:1012B80042BE68EF09F0425009E1220E415CD8A015
:1012C80068EF09F06AEF09F06CEF09F096EC0AF0A4
:1012D80042BE7AEF09F0425007E11F0E415CD8B0D8
:1012E80078EF09F07AEF09F07CEF09F098EC0AF052
:1012F800456A54EF09F0120020EE06F01F50D92677
:101308002050DA22000EDE6E000EDD6E00EE04F0D4
:101318001F50E9262050EA22DECFEEFFDDCFEDFF99
:1013280020EE02F01F50D9262050DA22EECFDEFF41
:10133800EDCFDDFF080E1F241B6E000E20201C6E53
:10134800000E1E6E010E1D6EABEC09F01200F29E2F
:101358001BC0D9FF1CC0DAFF1DC0DEFF1EC0DDFFA9
:1013680020EE0CF01B50D9261C50DA22000EDE6E3F
:10137800000EDD6E00EE0AF01B50E9261C50EA2232
:10138800DECFEEFFDDCFEDFF20EE08F01B50D926B3
:101398001C50DA22EECFDEFFEDCFDDFFF28E120019
:1013A800340EF66E150EF76E000EF86E0900F5CFC6
:1013B8005CF00900F5CF5DF000EEF1F021EEC8F029
:1013C800EE6ADD50D950FCE1DA50FAE100EE41F066
:1013D8001B0EEE6AE806FDE10001F3EF09F029ECC7
:1013E8000AF0000E1C6E020E1B6E1E0E1D6E140EF1
:1013F8001E6E1EEC09F0000E1C6E020E1B6EB60E61
:101408001D6E110E1E6E1EEC09F08EEC0AF00BEF2D
:101418000AF006EF00F0E652E65293EC08F0FE0EF2
:1014280021C0E3FFFF0E22C0E3FFFE0EE3CFE6FF7D
:10143800E3CFE6FF460EE66E000EE66EC7EC04F05C
:1014480011EF0AF0E552E5521200000EE8CFB7F2AC
:10145800000EE8CFB8F2000EE8CFB5F2000EE8CFE4
:10146800B6F2000E1C6E010E1B6E840E1D6E140E5D
:101478001E6E1EEC09F084EC0AF01200959683B6F5
:1014880048EF0AF04BEF0AF0010E4CEF0AF0000E9D
:10149800FF0A2C6E2C462C462C468C502C18F70B29
:1014A8002C188C6E00F043EF0AF012004550D8A4B7
:1014B80060EF0AF062EF0AF05AEF0AF093EC08F0D6
:1014C80021C041F022C042F0010E456E5AEF0AF0E9
:1014D8001200F28CF28AF294D596D550F80B0209D4
:1014E800D56ED59A000ED66E1200F20EE3CF21F01B
:1014F800F30EE3CF22F0F20EE126FF0EE2221200F5
:10150800000E956E9368460E1F6E000E206E80ECDE
:1015180009F012006DEC0AF0F28ED55012002AEC98
:0E15280006F01200838012008390120008006B
:020000040020DA
:08000000FFFFFFFFFFFFFFFF00
:020000040030CA
:0E000000FF071B1EFF8181FF0FC00FE00F40A6
:00000001FF
